:020000040800F2
:10000000005000202D1B00087D1B00087D1B0008F0
:100010007D1B00087D1B00087D1B00080000000000
:100020000000000000000000000000007D1B000830
:100030007D1B0008000000007D1B00087D1B0008E0
:100040007D1B00087D1B00087D1B00087D1B000830
:100050007D1B00087D1B00087D1B00087D1B000820
:100060007D1B00087D1B00087D1B00087D1B000810
:100070007D1B00087D1B00087D1B00087D1B000800
:100080007D1B00087D1B0008450F00087D1B000834
:100090007D1B00087D1B00087D1B00087D1B0008E0
:1000A0007D1B00087D1B00087D1B00087D1B0008D0
:1000B00089130008B11300087D1B00087D1B000890
:1000C0007D1B00087D1B00087D1B00087D1B0008B0
:1000D0007D1B00087D1B00087D1B00087D1B0008A0
:1000E0007D1B00087D1B00087D1B00080000000030
:1000F0000000000000000000000000000000000000
:0C01000000000000000000005FF808F1A3
:1001100081F0004102E000BF83F0004330B54FEAB8
:1001200041044FEA430594EA050F08BF90EA020F25
:100130001FBF54EA000C55EA020C7FEA645C7FEAB8
:10014000655C00F0E2804FEA5454D4EB5555B8BFDB
:100150006D420CDD2C4480EA020281EA030382EA4C
:10016000000083EA010180EA020281EA0303362DDE
:1001700088BF30BD11F0004F4FEA01314FF4801CB1
:100180004CEA113102D0404261EB410113F0004FC3
:100190004FEA03334CEA133302D0524263EB43037A
:1001A00094EA050F00F0A780A4F10104D5F1200E18
:1001B0000DDB02FA0EFC22FA05F2801841F1000173
:1001C00003FA0EF2801843FA05F359410EE0A5F147
:1001D00020050EF1200E012A03FA0EFC28BF4CF078
:1001E000020C43FA05F3C01851EBE37101F000452E
:1001F00007D54FF0000EDCF1000C7EEB00006EEB3B
:100200000101B1F5801F1BD3B1F5001F0CD34908C4
:100210005FEA30004FEA3C0C04F101044FEA44521B
:1002200012F5800F80F09A80BCF1004F08BF5FEAA2
:10023000500C50F1000041EB045141EA050130BD82
:100240005FEA4C0C404141EB0101013C28BFB1F594
:10025000801FE9D291F0000F04BF01460020B1FADF
:1002600081F308BF2033A3F10B03B3F120020CDAB2
:100270000C3208DD02F1140CC2F10C0201FA0CF090
:1002800021FA02F10CE002F11402D8BFC2F1200CF5
:1002900001FA02F120FA0CFCDCBF41EA0C019040AB
:1002A000E41AA2BF01EB0451294330BD6FEA0404F4
:1002B0001F3C1CDA0C340EDC04F11404C4F12002DF
:1002C00020FA04F001FA02F340EA030021FA04F3F1
:1002D00045EA030130BDC4F10C04C4F1200220FA48
:1002E00002F001FA04F340EA0300294630BD21FA86
:1002F00004F0294630BD94F0000F83F4801306BF4C
:1003000081F480110134013D4EE77FEA645C18BF3F
:100310007FEA655C29D094EA050F08BF90EA020FD6
:1003200005D054EA000C04BF1946104630BD91EACE
:10033000030F1EBF0021002030BD5FEA545C05D1D1
:100340004000494128BF41F0004130BD14F5800410
:100350003CBF01F5801130BD01F0004545F0FE4184
:1003600041F470014FF0000030BD7FEA645C1ABFB9
:10037000194610467FEA655C1CBF0B46024650EAF0
:10038000013406BF52EA033591EA030F41F400211C
:1003900030BD00BF90F0000F04BF0021704730B5A2
:1003A0004FF4806404F132044FF000054FF0000177
:1003B00050E700BF90F0000F04BF0021704730B538
:1003C0004FF4806404F1320410F0004548BF40420D
:1003D0004FF000013EE700BF42004FEAE2014FEA62
:1003E00031014FEA02701FBF12F07F4393F07F4F3D
:1003F00081F06051704732F07F4208BF704793F040
:100400007F4F04BF41F40021704730B54FF4607452
:1004100001F0004521F000411CE700BF50EA010255
:1004200008BF704730B54FF000050AE050EA0102FE
:1004300008BF704730B511F0004502D5404261EB6E
:1004400041014FF4806404F132045FEA915C3FF4AF
:10045000D8AE4FF003025FEADC0C18BF03325FEA4C
:10046000DC0C18BF033202EBDC02C2F1200300FAFD
:1004700003FC20FA02F001FA03FE40EA0E0021FA22
:1004800002F11444BDE600BF4FF0FF3C06E000BFA0
:100490004FF0010C02E000BF4FF0010C4DF804CD0D
:1004A0004FEA410C7FEA6C5C4FEA430C18BF7FEACD
:1004B0006C5C1BD001B050EA410C0CBF52EA430CFB
:1004C00091EA030F02BF90EA020F0020704710F17B
:1004D000000F91EA030F58BF994208BF90422CBF0A
:1004E000D8176FEAE37040F0010070474FEA410C03
:1004F0007FEA6C5C02D150EA013C07D14FEA430C21
:100500007FEA6C5CD6D152EA033CD3D05DF8040B91
:10051000704700BF8446104662468C4619466346C3
:1005200000E000BF01B5FFF7B7FF002848BF10F19A
:10053000000F01BD4DF808EDFFF7F4FF0CBF0120DF
:1005400000205DF808FB00BF4DF808EDFFF7EAFF5B
:1005500034BF012000205DF808FB00BF4DF808ED16
:10056000FFF7E0FF94BF012000205DF808FB00BF0B
:100570004DF808EDFFF7CEFF94BF012000205DF895
:1005800008FB00BF4DF808EDFFF7C4FF34BF0120A2
:1005900000205DF808FB00BF80F0004002E000BFD3
:1005A00081F0004142001FBF5FEA410392EA030F5E
:1005B0007FEA226C7FEA236C6AD04FEA1262D2EBA8
:1005C0001363C1BFD218414048404140B8BF5B42AD
:1005D000192B88BF704710F0004F40F4000020F046
:1005E0007F4018BF404211F0004F41F4000121F05C
:1005F0007F4118BF494292EA030F3FD0A2F10102A6
:1006000041FA03FC10EB0C00C3F1200301FA03F1E3
:1006100000F0004302D5494260EB4000B0F5000F06
:1006200013D3B0F1807F06D340084FEA310102F1C5
:100630000102FE2A51D2B1F1004F40EBC25008BF77
:1006400020F0010040EA03007047490040EB000041
:10065000013A28BFB0F5000FEDD2B0FA80FCACF142
:10066000080CB2EB0C0200FA0CF0AABF00EBC2506F
:1006700052421843BCBFD0401843704792F0000F5D
:1006800081F4000106BF80F400000132013BB5E7B0
:100690004FEA41037FEA226C18BF7FEA236C21D026
:1006A00092EA030F04D092F0000F08BF084670478B
:1006B00090EA010F1CBF0020704712F07F4F04D159
:1006C000400028BF40F00040704712F100723CBF6C
:1006D00000F50000704700F0004343F0FE4040F496
:1006E000000070477FEA226216BF08467FEA236354
:1006F0000146420206BF5FEA412390EA010F40F43F
:10070000800070474FF0000304E000BF10F000438A
:1007100048BF40425FEA000C08BF704743F0964371
:1007200001464FF000001CE050EA010208BF70478C
:100730004FF000030AE000BF50EA010208BF704713
:1007400011F0004302D5404261EB41015FEA010C28
:1007500002BF84460146002043F0B64308BFA3F120
:100760008053A3F50003BCFA8CF2083AA3EBC25302
:1007700010DB01FA02FC634400FA02FCC2F1200221
:10078000BCF1004F20FA02F243EB020008BF20F058
:100790000100704702F1200201FA02FCC2F12002BE
:1007A00050EA4C0021FA02F243EB020008BF20EAB3
:1007B000DC7070474FF0FF0C1CEAD0521EBF1CEAE1
:1007C000D15392EA0C0F93EA0C0F6FD01A4480EACF
:1007D000010C400218BF5FEA41211ED04FF00063B8
:1007E00043EA501043EA5111A0FB01310CF00040E4
:1007F000B1F5000F3EBF490041EAD3715B0040EA0A
:10080000010062F17F02FD2A1DD8B3F1004F40EBD9
:10081000C25008BF20F00100704790F0000F0CF0AC
:10082000004C08BF49024CEA502040EA51207F3A70
:10083000C2BFD2F1FF0340EAC250704740F400004B
:100840004FF00003013A5DDC12F1190FDCBF00F03C
:1008500000407047C2F10002410021FA02F1C2F1EA
:10086000200200FA02FC5FEA310040F1000053EA86
:100870004C0308BF20EADC70704792F0000F00F0D4
:10088000004C02BF400010F4000F013AF9D040EADA
:100890000C0093F0000F01F0004C02BF490011F46E
:1008A000000F013BF9D041EA0C018FE70CEAD1536C
:1008B00092EA0C0F18BF93EA0C0F0AD030F0004CEC
:1008C00018BF31F0004CD8D180EA010000F00040A0
:1008D000704790F0000F17BF90F0004F084691F05E
:1008E000000F91F0004F14D092EA0C0F01D1420298
:1008F0000FD193EA0C0F03D14B0218BF084608D161
:1009000080EA010000F0004040F0FE4040F40000AA
:10091000704740F0FE4040F4400070474FF0FF0C3D
:100920001CEAD0521EBF1CEAD15392EA0C0F93EA84
:100930000C0F69D0A2EB030280EA010C49024FEAD6
:10094000402037D04FF0805343EA111143EA10138F
:100950000CF000408B4238BF5B0042F17D024FF447
:10096000000C8B4224BF5B1A40EA0C00B3EB510F22
:1009700024BFA3EB510340EA5C00B3EB910F24BF0B
:10098000A3EB910340EA9C00B3EBD10F24BFA3EB90
:10099000D10340EADC001B0118BF5FEA1C1CE0D158
:1009A000FD2A3FF650AF8B4240EBC25008BF20F00B
:1009B000010070470CF0004C4CEA50207F32C2BF5F
:1009C000D2F1FF0340EAC250704740F400004FF0FC
:1009D0000003013A37E792F0000F00F0004C02BF2D
:1009E000400010F4000F013AF9D040EA0C0093F0F7
:1009F000000F01F0004C02BF490011F4000F013B51
:100A0000F9D041EA0C0195E70CEAD15392EA0C0FB8
:100A100008D142027FF47DAF93EA0C0F7FF470AFF0
:100A2000084676E793EA0C0F04D14B023FF44CAF33
:100A300008466EE730F0004C18BF31F0004CCAD1C8
:100A400030F000427FF45CAF31F000437FF43CAF04
:100A50005FE700BF4FF0FF3C06E000BF4FF0010C26
:100A600002E000BF4FF0010C4DF804CD4FEA400208
:100A70004FEA41037FEA226C18BF7FEA236C11D052
:100A800001B052EA530C18BF90EA010F58BFB2EB05
:100A9000030088BFC81738BF6FEAE17018BF40F085
:100AA000010070477FEA226C02D15FEA402C05D139
:100AB0007FEA236CE4D15FEA412CE1D05DF8040BBE
:100AC000704700BF844608466146FFE70FB5FFF751
:100AD000C9FF002848BF10F1000F0FBD4DF808ED09
:100AE000FFF7F4FF0CBF012000205DF808FB00BFFA
:100AF0004DF808EDFFF7EAFF34BF012000205DF854
:100B000008FB00BF4DF808EDFFF7E0FF94BF0120A0
:100B100000205DF808FB00BF4DF808EDFFF7D2FF9D
:100B200094BF012000205DF808FB00BF4DF808EDE0
:100B3000FFF7C8FF34BF012000205DF808FB00BFAD
:100B400042000ED2B2F1FE4F0BD34FF09E03B3EB37
:100B5000126209D44FEA002343F0004323FA02F063
:100B600070474FF00000704712F1610F01D142024F
:100B700002D14FF0FF3070474FF00000704700BFC8
:100B800080B483B000AF0346FB7197F90730002BA8
:100B90000BDBFB7903F01F02064997F907305B096D
:100BA000012000FA02F241F8232000BF0C37BD46B5
:100BB00080BC704700E100E080B483B000AF034622
:100BC0003960FB7197F90730002B0ADB3B68DAB21A
:100BD0000C4997F907301201D2B20B4483F8002375
:100BE0000AE03B68DAB20849FB7903F00F03043BE3
:100BF0001201D2B20B441A7600BF0C37BD4680BC3E
:100C0000704700BF00E100E000ED00E080B582B079
:100C100000AF7B4B5B6A7A4A43F4E02353620023C4
:100C20007B6009E0774A7B6820334FF0FF3142F860
:100C300023107B6801337B607B68072BF2DD724BEE
:100C400000221A614FF0804300221A616F4B00228C
:100C50001A616F4B00221A616E4B00221A6062B655
:100C600000BF00F0DFF800F0A5F900F013FB00F082
:100C700041FB00F067FB00F027F91C20FFF780FF25
:100C800000211C20FFF798FF1D20FFF779FF0021AE
:100C90001D20FFF791FF1220FFF772FF00211220A5
:100CA000FFF78AFF00F0E2FB03461A465A4B1A7020
:100CB00000F0EEFB03461A46584B1A70564B1B7851
:100CC000DBB2002B2FD1554B1B78DBB2002B2AD186
:100CD000642000F0BDF8514B1B78DBB2002B40F0D4
:100CE00088804D4B1B78DBB2002B40F082804C4B50
:100CF00001221A7001E000F077FB00F0B7FB034619
:100D00001A46454B11461970002A08D100F0C0FB65
:100D100003461A46414B11461970002AEBD0404B4E
:100D200000221A7065E03C4B1B78DBB2012B2DD101
:100D30003A4B1B78DBB2002B28D1642000F088F8F6
:100D4000354B1B78DBB2012B55D1344B1B78DBB212
:100D5000002B50D1324B03221A7001E000F044FB0B
:100D600000F084FB03461A462B4B11461970012AEA
:100D700008D100F08DFB03461A46284B1146197026
:100D8000002AEBD0264B00221A7034E0224B1B784D
:100D9000DBB2002B30D1214B1B78DBB2012B2BD1E6
:100DA000642000F055F81C4B1B78DBB2002B23D1DC
:100DB0001A4B1B78DBB2012B1ED1194B02221A7081
:100DC00001E000F011FB00F051FB03461A46124B04
:100DD00011461970002A08D100F05AFB03461A4642
:100DE0000E4B11461970012AEBD00D4B00221A70E0
:100DF00002E000BF00E000BF00F0F6FA52E700BFDB
:100E000000ED00E000E100E0002C014000040040A3
:100E100000080040002401400900002008000020D4
:100E20003C00002080B400AF084B9B69074A43F4A4
:100E3000206343F00C039361044BDB69034A43F0E6
:100E40000503D36100BFBD4680BC7047001002405F
:100E500080B485B000AF7860154B1B68154AA2FBC3
:100E600003239B09BB600023FB6016E0124ABB68AA
:100E7000013B5360104B00229A600F4B05221A6011
:100E800000BF0D4B1B6803F48033002BF9D00A4BD5
:100E900000221A60FB680133FB60FA687B689A42A3
:100EA000E4D300BF00BF1437BD4680BC704700BF0D
:100EB00000000020D34D621010E000E080B400AFCD
:100EC00000BFBD4680BC704780B400AF1C4B9B6820
:100ED0001B4A43F001039360194B9B68184A43F087
:100EE0000803936000BF164B9B6803F00803002BB8
:100EF000F9D1134B9B68124A43F00403936000BF7F
:100F00000F4B9B6803F00403002BF9D10C4B00221C
:100F10005A600B4B03229A60094B0022DA62084B9D
:100F200000225A63064B07221A61054B9B68044A4C
:100F300043F00103936000BFBD4680BC704700BF13
:100F40000024014080B500AF094B1B6803F0020389
:100F5000002B0AD0064BDB6C184600F00BF8044B54
:100F60001B68034A23F00203136000BF80BD00BF6B
:100F70000024014080B582B000AF78607868FFF748
:100F8000C1FB034609491846FFF714FC03464FF01E
:100F90008B411846FFF7C2FC03461A46044B1A6001
:100FA00000F0E0FC00BF0837BD4680BD333353403E
:100FB0004800002080B400AF974B1B68964A23F08E
:100FC000C0031360944B1B68934A23F030031360F3
:100FD000914B5B68904A23F4400353608E4B5B68EF
:100FE0008D4A23F4401353608B4B5B688A4A43F469
:100FF00000035360884B5B68874A43F44013536097
:10100000864B1B68854A23F00C031360834B1B68D7
:10101000824A23F003031360804B1B687F4A23F04E
:101020000C0313607D4B1B687C4A43F00303136081
:101030007A4B1B68794A23F0C0031360774B1B6817
:10104000764A23F030031360744B1B68734A23F015
:10105000C0031360714B1B68704A43F03003136088
:101060006E4B1B686D4A23F4406313606B4B1B6827
:101070006A4A23F440731360684B1B68674A23F481
:1010800040631360654B1B68644A43F4407313600C
:10109000624B1B68614A23F4404313605F4B1B683B
:1010A0005E4A23F4405313605C4B1B685B4A23F495
:1010B00040431360594B1B68584A43F44053136034
:1010C000564B1B68554A23F440231360534B1B684F
:1010D000524A23F440331360504B1B684F4A23F4A9
:1010E000402313604D4B1B684C4A43F4403313605C
:1010F0004A4B1B68494A23F440031360474B1B6863
:10110000464A23F440131360444B1B68434A23F4BC
:1011100040031360414B1B68404A43F44013136083
:101120003E4B1B683D4A23F0406313603B4B1B68FA
:101130003A4A23F040731360384B1B68374A23F058
:1011400040631360354B1B68344A43F040731360AF
:10115000324B1B68314A23F0404313602F4B1B680E
:101160002E4A23F0405313602C4B1B682B4A23F06C
:1011700040431360294B1B68284A43F040531360D7
:10118000264B5B68254A23F00C035360234B5B68B6
:10119000224A23F003035360204B5B681F4A23F06D
:1011A0000C0353601D4B5B681C4A43F00303536000
:1011B0001A4B5B68194A23F0C0035360174B5B68F6
:1011C000164A23F030035360144B5B68134A23F034
:1011D000C0035360114B5B68104A43F03003536007
:1011E0000E4B5B680D4A23F4406353600B4B5B6806
:1011F0000A4A23F440735360084B5B68074A23F4A0
:1012000040635360054B5B68044A43F4407353608A
:10121000024B034A1A6105E0000C0140000801403E
:101220000000FF07134B5B68124A23F070635360A2
:10123000104B5B680F4A43F0006353600D4BDB6853
:101240000C4A43F48043D3600A4B5B68094A23F09D
:1012500070435360074B5B68064A43F0004353609A
:10126000044BDB68034A43F40043D36000BFBD4630
:1012700080BC7047000C014080B400AF034B044AAF
:101280001A6100BFBD4680BC704700BF0008014026
:101290000000FF0798B500AF154B40F21F329A626D
:1012A000134BC722DA62124B9B69114A43F0680361
:1012B00093610F4C00F0C4F8034663630C4B1B6A48
:1012C0000B4A23F008031362094B1B6A084A43F0D8
:1012D00004031362064B5B6C054A43F400435364FA
:1012E000034B1B68024A43F00103136000BF98BD23
:1012F000002C014080B400AF4FF080439B684FF05A
:10130000804223F0070393604FF0804340F21F3286
:101310009A624FF0804340F2E732DA624FF0804346
:10132000DB684FF0804243F00103D3604FF080430D
:101330001B684FF0804243F00103136000BFBD46BD
:1013400080BC704780B400AF0E4B9B680D4A23F001
:10135000070393600B4B40F21F329A62094B40F235
:10136000F312DA62074BDB68064A43F00103D360ED
:10137000044B1B68034A43F00103136000BFBD46E2
:1013800080BC70470004004080B400AF074B0122CE
:101390001A704FF080431B694FF0804223F0010325
:1013A000136100BFBD4680BC704700BF44000020F1
:1013B00080B400AF0A4B1B6903F00103002B0BD074
:1013C000074B1B69064A23F001031361054B9B6819
:1013D000044A43F48003936000BFBD4680BC70475D
:1013E000000400400024014080B500AF124B1B7880
:1013F000002B1FD0114B1B78032B17D801A252F8DA
:1014000023F000BF151400081B140008271400085F
:101410002114000800F04EF809E000F059F806E049
:1014200000F066F803E000F08BF800E000BF024B2C
:1014300000221A7000BF80BD440000203C00002044
:1014400080B400AF074B1B781A46C72302FB03F397
:10145000054A82FB03125211DB17D31A1846BD4608
:1014600080BC70470A0000201F85EB5180B400AF9C
:10147000064B9B6803F48043002B01D0012300E05E
:1014800000231846BD4680BC704700BF000C0140D9
:1014900080B400AF064B9B6803F40043002B01D0DF
:1014A000012300E000231846BD4680BC704700BF02
:1014B000000C014080B500AF044B1B68184600F0DB
:1014C000A7F800F065F800BF80BD00BF480000200D
:1014D00080B500AFFFF7B4FF03461846FFF712F9D7
:1014E0000346184600F094F800F052F800BF80BDA3
:1014F00080B500AF104B1B6810491846FFF750F835
:1015000003461A460C4B1A600B4B1B684FF07E517A
:101510001846FFF7F7FA0346002B03D0064B4FF0AF
:101520007E521A60044B1B68184600F071F800F0F8
:101530002FF800BF80BD00BF040000200AD7A33CE5
:1015400080B500AF0F4B1B680F491846FFF72AF80C
:1015500003461A460B4B1A600A4B1B680B49184688
:10156000FFF7DAFA0346002B02D0064B074A1A604F
:10157000044B1B68184600F04BF800F009F800BF58
:1015800080BD00BF040000200AD7A33C00004842F1
:1015900080B500AFFFF770FE184B1B78022B14D0FC
:1015A000022B19DC002B02D0012B07D014E0144BC6
:1015B0001B68144A43F4807313610EE0104B5B68A0
:1015C000104A43F40073136107E00D4B9B680D4A0A
:1015D00043F48063136100E000BF084B1B785A1C82
:1015E000094B83FB0231D317C91A0B465B000B442E
:1015F000D11ACAB2014B1A7000BF80BD4C00002046
:1016000050000020000801405655555500000000CC
:1016100080B584B000AF78600023FB734FF0000109
:101620007868FFF765FA0346002B56D13049786891
:10163000FFF772FA0346002B4FD17868FFF780FA64
:1016400003467B730023BB737868FEF7C5FE26A3B1
:10165000D3E90023FEF78CFF0346002B1AD07B7BD7
:101660001846FFF753F8034619467868FEF798FFC7
:10167000034620491846FFF79DF803464FF07C517A
:101680001846FEF78FFF03461846FFF759FA034640
:10169000BB731BE07B7B1846FFF738F803461946FF
:1016A0007868FEF77DFF034613491846FFF782F876
:1016B00003464FF07C511846FEF774FF0346184668
:1016C000FFF73EFA0346BB730123FB73FA7BB97B3A
:1016D0007B7B184600F012F800E000BF1037BD46D3
:1016E00080BD00BFAFF300803D0AD7A370FD23404B
:1016F000CDCCC7420000C8420000204180B584B074
:1017000000AF0346FB710B46BB7113467B71FB793F
:101710001E4AA2FB0323DB08FB73FA791B4BA3FBD6
:101720000213D9080B469B000B445B00D31ABB7312
:10173000BB797B73164B00229A60154B9B68144A49
:101740005360134B5B68124A13607B79002B0AD0FD
:10175000FB7B19460E4800F021F8BB7B19460D486B
:1017600000F08EF809E0FB7B1946094800F088F884
:10177000BB7B1946074800F011F87B7B19460648E9
:1017800000F07EF800BF1037BD4680BDCDCCCCCC7C
:1017900050000020540000205800002080B483B086
:1017A00000AF78600B46FB70FB78092B5CD801A278
:1017B00052F823F0DD170008EB170008F9170008AE
:1017C0000718000815180008231800083118000829
:1017D0003F1800084D1800085B1800087B681B685C
:1017E00043F0BF027B681A6045E07B681B6843F0EA
:1017F00086027B681A603EE07B681B6843F0DB0270
:101800007B681A6037E07B681B6843F0CF027B6817
:101810001A6030E07B681B6843F0E6027B681A6060
:1018200029E07B681B6843F0ED027B681A6022E0C8
:101830007B681B6843F0FD027B681A601BE07B68D5
:101840001B6843F087027B681A6014E07B681B68A2
:1018500043F0FF027B681A600DE07B681B6843F071
:10186000EF027B681A6006E07B681B6843F0BF02EA
:101870007B681A6000BF00BF0C37BD4680BC704754
:1018800080B483B000AF78600B46FB70FB78092B07
:101890005CD801A252F823F0C1180008CF18000844
:1018A000DD180008EB180008F918000807190008EF
:1018B0001519000823190008311900083F190008FC
:1018C0007B681B6843F03F027B681A6045E07B68D9
:1018D0001B6843F006027B681A603EE07B681B6869
:1018E00043F05B027B681A6037E07B681B6843F05B
:1018F0004F027B681A6030E07B681B6843F0660229
:101900007B681A6029E07B681B6843F06D027B6886
:101910001A6022E07B681B6843F07D027B681A60D6
:101920001BE07B681B6843F007027B681A6014E0C9
:101930007B681B6843F07F027B681A600DE07B6860
:101940001B6843F06F027B681A6006E07B681B68C7
:1019500043F03F027B681A6000BF00BF0C37BD46F2
:1019600080BC704790B583B000AF1A4B1B78184607
:10197000FEF7CCFE0446184B1B68184A1268114645
:101980001846FEF70DFE03461946154800F02CF8E0
:10199000034619462046FEF705FE03467B604FF0DE
:1019A00000017868FFF7AEF80346002B02D0094B20
:1019B00000221A700B497868FFF7AEF80346002B37
:1019C00000D102E0034B64221A7000BF0C37BD4601
:1019D00090BD00BF0A000020040000204800002045
:1019E0000C0000200000C84290B583B000AF7860C2
:1019F00039607B685A6A7B689A627B683A685A6287
:101A00007B685A6A7B685A617B685B684FF00001AB
:101A10001846FFF763F80346002B30D17B689C69BA
:101A20007B685A687B685B6919461046FEF7C2FE00
:101A3000034619462046FEF7B5FD03461A467B6865
:101A40009A617B689A697B68DB6819461046FFF7E4
:101A50006DF80346002B03D07B68DA687B689A61D7
:101A60007B689A697B681B6919461046FFF740F846
:101A70000346002B03D07B681A697B689A617B68F8
:101A80005A6A7B689B6A19461046FEF789FD034631
:101A90001A467B68DA617B6893F82C3083F0010387
:101AA000DBB2002B18D07B68012283F82C207B68E6
:101AB0001A687B685B6919461046FEF77BFE034691
:101AC0001A467B689B6919461046FEF76BFD034674
:101AD0001A467B681A6222E07B681A687B685B6939
:101AE00019461046FEF766FE03461A467B689B6958
:101AF00019461046FEF756FD03461C467B689A6859
:101B00007B68DB6919461046FEF754FE034619460A
:101B10002046FEF747FD03461A467B681A627B683B
:101B20001B6A18460C37BD4690BD000072B60D48C2
:101B30008546FFF7C3F90C480C490D4A002302E023
:101B4000D458C4500433C4188C42F9D3094A0A4CFF
:101B5000002301E013600432A242FBD3FFF756F8E2
:101B60007047000000500020000000203C000020D2
:101B7000A41B00083C0000205C0000200248EFF39A
:101B800005810160FEE7000040000020F8B500BFBD
:101B9000F8BC08BC9E467047F8B500BFF8BC08BC4E
:041BA0009E467047A6
:101BA40000127A000000F04101010A0017B7D13891
:101BB40017B7D13800000000000048420000803F01
:101BC4000000000000000000000000000000000011
:0C1BD40000000000000000000000000005
:0400000508001B2DA7
:00000001FF
