:020000040800F2
:10000000FF270020491900089119000891190008DC
:1000100091190008911900089119000800000000CA
:10002000000000000000000000000000911900081E
:1000300091190008000000009119000891190008AA
:1000400091190008911900089119000891190008E8
:1000500091190008911900089119000891190008D8
:1000600091190008911900089119000891190008C8
:1000700091190008911900089119000891190008B8
:100080009119000891190008050C00089119000841
:100090009119000891190008911900089119000898
:1000A0009119000891190008911900089119000888
:1000B00049100008711000080000000091190008A4
:1000C00091190008000000000000000091190008CC
:1000D00000000000911900089119000800000000BC
:1000E00091190008911900089119000800000000FA
:1000F0000000000000000000000000000000000000
:0C01000000000000000000005FF808F1A3
:10010C000348044B834202D0034B03B1184770479A
:10011C003C0000203C000020000000000548064B7D
:10012C001B1AD90F01EBA301491002D0034B03B1E9
:10013C00184770473C0000203C00002000000000E5
:10014C0010B5064C237843B9FFF7DAFF044B13B113
:10015C000448AFF300800123237010BD3C00002045
:10016C0000000000A819000808B5044B1BB1044995
:10017C000448AFF30080BDE80840CFE70000000062
:10018C0040000020A819000880F0004002E000BFE9
:10019C0081F0004142001FBF5FEA410392EA030F66
:1001AC007FEA226C7FEA236C6AD04FEA1262D2EBB0
:1001BC001363C1BFD218414048404140B8BF5B42B5
:1001CC00192B88BF704710F0004F40F4000020F04E
:1001DC007F4018BF404211F0004F41F4000121F064
:1001EC007F4118BF494292EA030F3FD0A2F10102AE
:1001FC0041FA03FC10EB0C00C3F1200301FA03F1EC
:10020C0000F0004302D5494260EB4000B0F5000F0E
:10021C0013D3B0F1807F06D340084FEA310102F1CD
:10022C000102FE2A51D2B1F1004F40EBC25008BF7F
:10023C0020F0010040EA03007047490040EB000049
:10024C00013A28BFB0F5000FEDD2B0FA80FCACF14A
:10025C00080CB2EB0C0200FA0CF0AABF00EBC25077
:10026C0052421843BCBFD0401843704792F0000F65
:10027C0081F4000106BF80F400000132013BB5E7B8
:10028C004FEA41037FEA226C18BF7FEA236C21D02E
:10029C0092EA030F04D092F0000F08BF0846704793
:1002AC0090EA010F1CBF0020704712F07F4F04D161
:1002BC00400028BF40F00040704712F100723CBF74
:1002CC0000F50000704700F0004343F0FE4040F49E
:1002DC00000070477FEA226216BF08467FEA23635C
:1002EC000146420206BF5FEA412390EA010F40F447
:1002FC00800070474FF0000304E000BF10F0004393
:10030C0048BF40425FEA000C08BF704743F0964379
:10031C0001464FF000001CE050EA010208BF704794
:10032C004FF000030AE000BF50EA010208BF70471B
:10033C0011F0004302D5404261EB41015FEA010C30
:10034C0002BF84460146002043F0B64308BFA3F128
:10035C008053A3F50003BCFA8CF2083AA3EBC2530A
:10036C0010DB01FA02FC634400FA02FCC2F1200229
:10037C00BCF1004F20FA02F243EB020008BF20F060
:10038C000100704702F1200201FA02FCC2F12002C6
:10039C0050EA4C0021FA02F243EB020008BF20EABB
:1003AC00DC7070474FF0FF0C1CEAD0521EBF1CEAE9
:1003BC00D15392EA0C0F93EA0C0F6FD01A4480EAD7
:1003CC00010C400218BF5FEA41211ED04FF00063C0
:1003DC0043EA501043EA5111A0FB01310CF00040EC
:1003EC00B1F5000F3EBF490041EAD3715B0040EA12
:1003FC00010062F17F02FD2A1DD8B3F1004F40EBE2
:10040C00C25008BF20F00100704790F0000F0CF0B4
:10041C00004C08BF49024CEA502040EA51207F3A78
:10042C00C2BFD2F1FF0340EAC250704740F4000053
:10043C004FF00003013A5DDC12F1190FDCBF00F044
:10044C0000407047C2F10002410021FA02F1C2F1F2
:10045C00200200FA02FC5FEA310040F1000053EA8E
:10046C004C0308BF20EADC70704792F0000F00F0DC
:10047C00004C02BF400010F4000F013AF9D040EAE2
:10048C000C0093F0000F01F0004C02BF490011F476
:10049C00000F013BF9D041EA0C018FE70CEAD15374
:1004AC0092EA0C0F18BF93EA0C0F0AD030F0004CF4
:1004BC0018BF31F0004CD8D180EA010000F00040A8
:1004CC00704790F0000F17BF90F0004F084691F066
:1004DC00000F91F0004F14D092EA0C0F01D14202A0
:1004EC000FD193EA0C0F03D14B0218BF084608D169
:1004FC0080EA010000F0004040F0FE4040F40000B3
:10050C00704740F0FE4040F4400070474FF0FF0C45
:10051C001CEAD0521EBF1CEAD15392EA0C0F93EA8C
:10052C000C0F69D0A2EB030280EA010C49024FEADE
:10053C00402037D04FF0805343EA111143EA101397
:10054C000CF000408B4238BF5B0042F17D024FF44F
:10055C00000C8B4224BF5B1A40EA0C00B3EB510F2A
:10056C0024BFA3EB510340EA5C00B3EB910F24BF13
:10057C00A3EB910340EA9C00B3EBD10F24BFA3EB98
:10058C00D10340EADC001B0118BF5FEA1C1CE0D160
:10059C00FD2A3FF650AF8B4240EBC25008BF20F013
:1005AC00010070470CF0004C4CEA50207F32C2BF67
:1005BC00D2F1FF0340EAC250704740F400004FF004
:1005CC000003013A37E792F0000F00F0004C02BF35
:1005DC00400010F4000F013AF9D040EA0C0093F0FF
:1005EC00000F01F0004C02BF490011F4000F013B59
:1005FC00F9D041EA0C0195E70CEAD15392EA0C0FC1
:10060C0008D142027FF47DAF93EA0C0F7FF470AFF8
:10061C00084676E793EA0C0F04D14B023FF44CAF3B
:10062C0008466EE730F0004C18BF31F0004CCAD1D0
:10063C0030F000427FF45CAF31F000437FF43CAF0C
:10064C005FE700BF4FF0FF3C06E000BF4FF0010C2E
:10065C0002E000BF4FF0010C4DF804CD4FEA400210
:10066C004FEA41037FEA226C18BF7FEA236C11D05A
:10067C0001B052EA530C18BF90EA010F58BFB2EB0D
:10068C00030088BFC81738BF6FEAE17018BF40F08D
:10069C00010070477FEA226C02D15FEA402C05D141
:1006AC007FEA236CE4D15FEA412CE1D05DF8040BC6
:1006BC00704700BF844608466146FFE70FB5FFF759
:1006CC00C9FF002848BF10F1000F0FBD4DF808ED11
:1006DC00FFF7F4FF0CBF012000205DF808FB00BF02
:1006EC004DF808EDFFF7EAFF34BF012000205DF85C
:1006FC0008FB00BF4DF808EDFFF7E0FF94BF0120A9
:10070C0000205DF808FB00BF4DF808EDFFF7D2FFA5
:10071C0094BF012000205DF808FB00BF4DF808EDE8
:10072C00FFF7C8FF34BF012000205DF808FB00BFB5
:10073C004FEA4002B2F1FE4F0FD34FF09E03B3EBE2
:10074C0012620DD94FEA002343F0004310F0004F22
:10075C0023FA02F018BF404270474FF00000704778
:10076C0012F1610F01D1420205D110F0004008BF17
:10077C006FF0004070474FF00000704742000ED2FF
:10078C00B2F1FE4F0BD34FF09E03B3EB126209D4C0
:10079C004FEA002343F0004323FA02F070474FF076
:1007AC000000704712F1610F01D1420202D14FF0EB
:1007BC00FF3070474FF00000704700BF38B5074D51
:1007CC00074C2C1BA41005D0013C55F8043D984750
:1007DC00002CF9D1BDE8384001F0E6B8CC1900087E
:1007EC00C8190008002301461A46184600F028B81C
:1007FC0070B50F4B0F4DAB42A3EB050607D0002491
:10080C00B61055F8043B01349847A642F9D801F0CC
:10081C00C5F8094D094B5E1BAB424FEAA60606D044
:10082C00002455F8043B01349847A642F9D870BD12
:10083C00C0190008C0190008C0190008C819000820
:10084C0070B5154D2C68DCB165681F2D21DC80B1AD
:10085C004FF0010C04EB850ECEF88820D4F888619B
:10086C000CFA05F216430228C4F88861CEF8083158
:10087C0009D06B1C02356360002044F8251070BD54
:10088C00064C2C60E0E7D4F88C311343C4F88C315F
:10089C00EFE74FF0FF3070BD580000205C000020E7
:1008AC0080B483B000AF0346FB7197F90730002B7F
:1008BC000BDBFB7903F01F02064997F907305B0944
:1008CC00012000FA02F241F8232000BF0C37BD468C
:1008DC0080BC704700E100E080B483B000AF0346F9
:1008EC003960FB7197F90730002B0ADB3B68DAB2F1
:1008FC000C4997F907301201D2B20B4483F800234C
:10090C000AE03B68DAB20849FB7903F00F03043BB9
:10091C001201D2B20B441A7600BF0C37BD4680BC14
:10092C00704700BF00E100E000ED00E080B500AFD3
:10093C0000F0D2F800F098F900F006FB00F034FB60
:10094C0000F05AFB00F01AF91C20FFF7A9FF002158
:10095C001C20FFF7C1FF1D20FFF7A2FF00211D2067
:10096C00FFF7BAFF1220FFF79BFF00211220FFF7C1
:10097C00B3FF00F0D5FB03461A46544B1A7000F037
:10098C00E1FB03461A46524B1A70504B1B78DBB2F4
:10099C00002B2FD14E4B1B78DBB2002B2AD16420BD
:1009AC0000F0B0F84A4B1B78DBB2002B40F088808B
:1009BC00464B1B78DBB2002B40F08280454B01226A
:1009CC001A7001E000F06AFB00F0AAFB03461A461D
:1009DC003E4B11461970002A08D100F0B3FB0346B8
:1009EC001A463B4B11461970002AEBD0394B0022AA
:1009FC001A7065E0354B1B78DBB2012B2DD1344BD3
:100A0C001B78DBB2002B28D1642000F07BF82F4B35
:100A1C001B78DBB2012B55D12D4B1B78DBB2002B95
:100A2C0050D12C4B03221A7001E000F037FB00F080
:100A3C0077FB03461A46254B11461970012A08D13B
:100A4C0000F080FB03461A46214B11461970002A10
:100A5C00EBD0204B00221A7034E01C4B1B78DBB21D
:100A6C00002B30D11A4B1B78DBB2012B2BD164201D
:100A7C0000F048F8154B1B78DBB2002B23D1144B3C
:100A8C001B78DBB2012B1ED1124B02221A7001E033
:100A9C0000F004FB00F044FB03461A460B4B1146D6
:100AAC001970002A08D100F04DFB03461A46084B7A
:100ABC0011461970012AEBD0064B00221A7002E085
:100ACC0000BF00E000BF00F0E9FA52E70900002087
:100ADC0008000020EC01002080B400AF084B9B699B
:100AEC00074A43F4206343F00C039361044BDB6926
:100AFC00034A43F00103D36100BFBD4680BC70477D
:100B0C000010024080B485B000AF7860154B1B68B4
:100B1C00154AA2FB03239B09BB600023FB6016E074
:100B2C00124ABB68013B5360104B00229A600F4B7A
:100B3C0005221A6000BF0D4B1B6803F48033002B99
:100B4C00F9D00A4B00221A60FB680133FB60FA688B
:100B5C007B689A42E4D300BF00BF1437BD4680BC0B
:100B6C00704700BF00000020D34D621010E000E081
:100B7C0080B400AF00BFBD4680BC704780B400AFEE
:100B8C001C4B9B681B4A43F001039360194B9B68F9
:100B9C00184A43F00803936000BF164B9B6803F0A0
:100BAC000803002BF9D1134B9B68124A43F0040342
:100BBC00936000BF0F4B9B6803F00403002BF9D12B
:100BCC000C4B00225A600B4B03229A60094B0022FB
:100BDC00DA62084B00225A63064B07221A61054B56
:100BEC009B68044A43F00103936000BFBD4680BC80
:100BFC00704700BF0024014080B500AF094B1B6853
:100C0C0003F00203002B0AD0064BDB6C184600F0F5
:100C1C000BF8044B1B68034A23F00203136000BF5C
:100C2C0080BD00BF0024014080B582B000AF786069
:100C3C007868FFF75FFB034609491846FFF7B2FBDC
:100C4C0003464FF08B411846FFF760FC03461A46EB
:100C5C00044B1A6000F08EFD00BF0837BD4680BD06
:100C6C0033335340F001002080B400AF974B1B6826
:100C7C00964A23F0C0031360944B1B68934A23F0ED
:100C8C0030031360914B5B68904A23F4400353602C
:100C9C008E4B5B688D4A23F4401353608B4B5B681F
:100CAC008A4A43F400035360884B5B68874A43F4D9
:100CBC0040135360864B1B68854A23F00C0313606A
:100CCC00834B1B68824A23F003031360804B1B6821
:100CDC007F4A23F00C0313607D4B1B687C4A43F066
:100CEC00030313607A4B1B68794A23F0C00313602B
:100CFC00774B1B68764A23F030031360744B1B68E8
:100D0C00734A23F0C0031360714B1B68704A43F0A5
:100D1C00300313606E4B1B686D4A23F44063136001
:100D2C006B4B1B686A4A23F440731360684B1B6857
:100D3C00674A23F440631360654B1B68644A43F4B1
:100D4C0040731360624B1B68614A23F44043136089
:100D5C005F4B1B685E4A23F4405313605C4B1B686B
:100D6C005B4A23F440431360594B1B68584A43F4C5
:100D7C0040531360564B1B68554A23F440231360B1
:100D8C00534B1B68524A23F440331360504B1B687F
:100D9C004F4A23F4402313604D4B1B684C4A43F4D9
:100DAC00403313604A4B1B68494A23F440031360D9
:100DBC00474B1B68464A23F440131360444B1B6893
:100DCC00434A23F440031360414B1B68404A43F4ED
:100DDC00401313603E4B1B683D4A23F04063136085
:100DEC003B4B1B683A4A23F040731360384B1B682B
:100DFC00374A23F040631360354B1B68344A43F089
:100E0C0040731360324B1B68314A23F0404313602C
:100E1C002F4B1B682E4A23F0405313602C4B1B683E
:100E2C002B4A23F040431360294B1B68284A43F09C
:100E3C0040531360264B5B68254A23F00C03536028
:100E4C00234B5B68224A23F003035360204B5B68FF
:100E5C001F4A23F00C0353601D4B5B681C4A43F084
:100E6C00030353601A4B5B68194A23F0C0035360A9
:100E7C00174B5B68164A23F030035360144B5B68C6
:100E8C00134A23F0C0035360114B5B68104A43F0C4
:100E9C00300353600E4B5B680D4A23F44063536080
:100EAC000B4B5B680A4A23F440735360084B5B6836
:100EBC00074A23F440635360054B5B68044A43F4D0
:100ECC0040735360024B034A1A6105E0000C014069
:100EDC00000801400000FF07134B5B68124A23F027
:100EEC0070635360104B5B680F4A43F000635360B0
:100EFC000D4BDB680C4A43F48043D3600A4B5B68B0
:100F0C00094A23F070435360074B5B68064A43F071
:100F1C0000435360044BDB68034A43F40043D36043
:100F2C0000BFBD4680BC7047000C014080B400AFD0
:100F3C00034B044A1A6100BFBD4680BC704700BF1A
:100F4C00000801400000FF0798B500AF154B40F2B8
:100F5C001F329A62134BC722DA62124B9B69114AF9
:100F6C0043F0680393610F4C00F0C4F803466363CD
:100F7C000C4B1B6A0B4A23F008031362094B1B6AC8
:100F8C00084A43F004031362064B5B6C054A43F4B6
:100F9C0000435364034B1B68024A43F00103136084
:100FAC0000BF98BD002C014080B400AF4FF08043CF
:100FBC009B684FF0804223F0070393604FF080430F
:100FCC0040F21F329A624FF0804340F2E732DA620D
:100FDC004FF08043DB684FF0804243F00103D36055
:100FEC004FF080431B684FF0804243F001031360C5
:100FFC0000BFBD4680BC704780B400AF0E4B9B68F1
:10100C000D4A23F0070393600B4B40F21F329A6298
:10101C00094B40F2F312DA62074BDB68064A43F0E5
:10102C000103D360044B1B68034A43F001031360B4
:10103C0000BFBD4680BC70470004004080B400AFC8
:10104C00074B01221A704FF080431B694FF080420E
:10105C0023F00103136100BFBD4680BC704700BF85
:10106C00ED01002080B400AF0A4B1B6903F00103B3
:10107C00002B0BD0074B1B69064A23F001031361AD
:10108C00054B9B68044A43F48003936000BFBD4644
:10109C0080BC7047000400400024014080B500AFC4
:1010AC00124B1B78002B1ED0104B00221A70104BC9
:1010BC001B78032B16D801A252F823F0D910000884
:1010CC00DF100008EB100008E510000800F04CF8E9
:1010DC0009E000F055F806E000F05EF803E000F0DF
:1010EC0083F800E000BF00BF80BD00BFED01002011
:1010FC00EC01002080B400AF074B1B781A46C723C5
:10110C0002FB03F3054A82FB03125211DB17D31ABD
:10111C001846BD4680BC7047F40100201F85EB517A
:10112C0080B400AF064B9B6803F48043002B01D0C6
:10113C00012300E000231846BD4680BC704700BF69
:10114C00000C014080B400AF064B9B6803F40043D5
:10115C00002B01D0012300E000231846BD4680BCC3
:10116C00704700BF000C014080B500AF034800F091
:10117C00C9F800F061F800BF80BD00BF66668E4103
:10118C0080B500AF034800F0BDF800F055F800BF83
:10119C0080BD00BF66668E4180B500AF0F4B1B68EB
:1011AC000F491846FEF7F4FF03461A460B4B1A601C
:1011BC000A4B1B684FF07E511846FFF79BFA03460B
:1011CC00002B03D0054B4FF07E521A60054800F0FF
:1011DC0099F800F031F800BF80BD00BF040000207A
:1011EC000AD7A33C66668E4180B500AF0E4B1B68D8
:1011FC000E491846FEF7CEFF03461A460A4B1A60F4
:10120C00094B1B680A491846FFF77EFA0346002B68
:10121C0002D0054B064A1A60064800F073F800F03D
:10122C000BF800BF80BD00BF040000200AD7A33C10
:10123C000000484266668E4180B500AFFFF776FE2F
:10124C002C4B01221A602B4B02225A60294B042290
:10125C009A60284B1B68DB43264A1360254B5B685E
:10126C00DB43244A5360234B9B68DB43214A936046
:10127C00214B1B78022B1ED0022B28DC002B02D01A
:10128C00012B0CD023E01D4B1B691B0C1B04194AB2
:10129C0012681343194A43F48073136118E0174B17
:1012AC001B691B0C1B04134A52681343134A43F467
:1012BC00007313610CE0114B1B691B0C1B040D4AD2
:1012CC00926813430D4A43F48063136100E000BF3E
:1012DC00094B1B785A1C0A4B83FB0231D317C91AD2
:1012EC000B465B000B44D11ACAB2034B1A7000BFF9
:1012FC0080BD00BFF8010020F5010020000801406E
:10130C005655555580B584B000AF78604FF000014C
:10131C007868FFF7E5F90346002B48D12649786831
:10132C00FFF7F2F90346002B41D17868FFF700FA7A
:10133C000346184600F098F90346BB724FF00003C1
:10134C00FB600023FB72BB7A012B07D10123FB72DC
:10135C000221786800F0A6F9F86007E0BB7A022B4E
:10136C0004D10221786800F09DF9F860F868FFF765
:10137C0005FA03467B721149F868FFF713F8034628
:10138C001846FFF7D5F903460D4A82FB031251119B
:10139C00DA178A1A642101FB02F29A1A13463B727D
:1013AC00FA7A397A7B7A184600F00CF800E000BF24
:1013BC001037BD4680BD00BFCDCCC7420000C8422F
:1013CC001F85EB5180B584B000AF0346FB710B4613
:1013DC00BB7113467B710023FB730023BB7300238B
:1013EC007B737B79002B13D0FB79FB73BB79284A79
:1013FC00A2FB0323DB08BB73BA79254BA3FB0213B7
:10140C00D9080B469B000B445B00D31A7B7312E08C
:10141C00FB791F4AA2FB0323DB08FB73FA791C4BF5
:10142C00A3FB0213D9080B469B000B445B00D31A99
:10143C00BB73BB797B73174B00229A60154B9B686F
:10144C00144A5360134B5B68124A13607B79002B70
:10145C000AD0FB7B19460F4800F022F8BB7B1946DB
:10146C000D4800F08FF809E0FB7B1946094800F0A5
:10147C0089F8BB7B1946084800F012F87B7B1946AB
:10148C00064800F07FF800BF1037BD4680BD00BF96
:10149C00CDCCCCCCF8010020FC01002000020020B7
:1014AC0080B483B000AF78600B46FB70FB78092BDF
:1014BC005CD801A252F823F0ED140008FB140008CC
:1014CC000915000817150008251500083315000824
:1014DC00411500084F1500085D1500086B15000834
:1014EC007B681B6843F0BF027B681A6045E07B6831
:1014FC001B6843F086027B681A603EE07B681B68C1
:10150C0043F0DB027B681A6037E07B681B6843F0B2
:10151C00CF027B681A6030E07B681B6843F0E60200
:10152C007B681A6029E07B681B6843F0ED027B68DE
:10153C001A6022E07B681B6843F0FD027B681A602E
:10154C001BE07B681B6843F087027B681A6014E021
:10155C007B681B6843F0FF027B681A600DE07B68B8
:10156C001B6843F0EF027B681A6006E07B681B681F
:10157C0043F0BF027B681A6000BF00BF0C37BD464A
:10158C0080BC704780B483B000AF78600B46FB70B2
:10159C00FB78092B5CD801A252F823F0D115000876
:1015AC00DF150008ED150008FB15000809160008EA
:1015BC0017160008251600083316000841160008F7
:1015CC004F1600087B681B6843F03F027B681A606B
:1015DC0045E07B681B6843F006027B681A603EE0BE
:1015EC007B681B6843F05B027B681A6037E07B68A2
:1015FC001B6843F04F027B681A6030E07B681B6805
:10160C0043F066027B681A6029E07B681B6843F034
:10161C006D027B681A6022E07B681B6843F07D02D8
:10162C007B681A601BE07B681B6843F007027B68D1
:10163C001A6014E07B681B6843F07F027B681A60B9
:10164C000DE07B681B6843F06F027B681A6006E054
:10165C007B681B6843F03F027B681A6000BF00BFC9
:10166C000C37BD4680BC704780B485B000AF786045
:10167C000023FB730AE07B68094A82FB0312921079
:10168C00DB17D31A7B60FB7B0133FB737B68002B6E
:10169C00F1D1FB7B18461437BD4680BC704700BFA8
:1016AC006766666690B585B000AF786039603B6858
:1016BC00002B02DA4FF0000340E039680A2000F0FA
:1016CC0041F803461846FEF719FE0346194678689A
:1016DC00FEF768FE0346FB60F868FFF729F803463F
:1016EC001846FEF70BFE03461946F868FEF750FD48
:1016FC0003464FF07C511846FFF706F80346002BC3
:10170C0006D04FF07E51F868FEF744FD0346FB60AF
:10171C00F868FFF70DF803461846FEF7EFFD044690
:10172C0039680A2000F00EF803461846FEF7E6FD6D
:10173C00034619462046FEF7E9FE034618461437C1
:10174C00BD4690BD80B582B000AF786039603B6813
:10175C00002B01D1012309E03B68013B1946786855
:10176C00FFF7F0FF02467B6802FB03F318460837CD
:10177C00BD4680BD90B583B000AF1A4B1B781846A0
:10178C00FEF7BCFD0446184B1B68184A126811463C
:10179C001846FEF7FDFC03461946154800F02CF8D8
:1017AC00034619462046FEF7F5FC03467B604FF0D6
:1017BC0000017868FEF79EFF0346002B02D0094B10
:1017CC0000221A700B497868FEF79EFF0346002B27
:1017DC0000D102E0034B64221A7000BF0C37BD46E7
:1017EC0090BD00BFF401002004000020F001002097
:1017FC000C0000200000C84290B583B000AF7860A8
:10180C0039607B685A6A7B689A627B683A685A626C
:10181C007B685A6A7B685A617B685B684FF0000191
:10182C001846FEF753FF0346002B30D17B689C69AA
:10183C007B685A687B685B6919461046FEF7B2FDF7
:10184C00034619462046FEF7A5FC03461A467B685C
:10185C009A617B689A697B68DB6819461046FEF7CB
:10186C005DFF0346002B03D07B68DA687B689A61C6
:10187C007B689A697B681B6919461046FEF730FF36
:10188C000346002B03D07B681A697B689A617B68DE
:10189C005A6A7B689B6A19461046FEF779FC034628
:1018AC001A467B68DA617B6893F82C3083F001036D
:1018BC00DBB2002B18D07B68012283F82C207B68CC
:1018CC001A687B685B6919461046FEF76BFD034688
:1018DC001A467B689B6919461046FEF75BFC03466B
:1018EC001A467B681A6222E07B681A687B685B691F
:1018FC0019461046FEF756FD03461A467B689B694F
:10190C0019461046FEF746FC03461C467B689A684F
:10191C007B68DB6919461046FEF744FD0346194601
:10192C002046FEF737FC03461A467B681A627B6832
:10193C001B6A18460C37BD4690BD0000FFF718F91E
:10194C000B480C490C4A002302E0D458C450043311
:10195C00C4188C42F9D3094A094C002301E01360E6
:10196C000432A242FBD3FEF743FFFEF7DFFF7047C2
:10197C00000000203C000020CC1900083C00002096
:10198C0004020020FEE70000024B13B10248FEF7F0
:10199C0029BF704700000000C9070008F8B500BF58
:1019AC00F8BC08BC9E467047F8B500BFF8BC08BC34
:0419BC009E4670478C
:0819C0009519000875010008EB
:0419C8004D010008C5
:1019CC0000127A000000F0410101000017B7D13875
:1019DC0017B7D13800000000000048420000803FDB
:1019EC0000000000000000000000000000000000EB
:0C19FC00000000000000000000000000DF
:04000005080019498D
:00000001FF
