:020000040800F2
:1000000000500020351400087D1400087D140008FD
:100010007D1400087D1400087D1400080000000015
:100020000000000000000000000000007D14000837
:100030007D140008000000007D1400087D140008F5
:100040007D1400087D1400087D1400087D1400084C
:100050007D1400087D1400087D1400087D1400083C
:100060007D1400087D1400087D1400087D1400082C
:100070007D1400087D1400087D1400087D1400081C
:100080007D1400087D140008B90C00087D140008D8
:100090007D1400087D1400087D1400087D140008FC
:1000A0007D1400087D1400087D1400087D140008EC
:1000B000410F0008590F00087D1400087D14000846
:1000C0007D1400087D1400087D1400087D140008CC
:1000D0007D1400087D1400087D1400087D140008BC
:1000E0007D1400087D1400087D1400080000000045
:1000F0000000000000000000000000000000000000
:0C01000000000000000000005FF808F1A3
:100110004FF0FF0C1CEAD0521EBF1CEAD15392EAEA
:100120000C0F93EA0C0F6FD01A4480EA010C4002C6
:1001300018BF5FEA41211ED04FF0006343EA501020
:1001400043EA5111A0FB01310CF00040B1F5000F62
:100150003EBF490041EAD3715B0040EA010062F111
:100160007F02FD2A1DD8B3F1004F40EBC25008BFFB
:1001700020F00100704790F0000F0CF0004C08BF19
:1001800049024CEA502040EA51207F3AC2BFD2F1E6
:10019000FF0340EAC250704740F400004FF00003F4
:1001A000013A5DDC12F1190FDCBF00F0004070472E
:1001B000C2F10002410021FA02F1C2F1200200FA6C
:1001C00002FC5FEA310040F1000053EA4C0308BF33
:1001D00020EADC70704792F0000F00F0004C02BF84
:1001E000400010F4000F013AF9D040EA0C0093F0FF
:1001F000000F01F0004C02BF490011F4000F013B59
:10020000F9D041EA0C018FE70CEAD15392EA0C0FC6
:1002100018BF93EA0C0F0AD030F0004C18BF31F031
:10022000004CD8D180EA010000F00040704790F007
:10023000000F17BF90F0004F084691F0000F91F0AB
:10024000004F14D092EA0C0F01D142020FD193EA71
:100250000C0F03D14B0218BF084608D180EA0100F9
:1002600000F0004040F0FE4040F40000704740F0D5
:10027000FE4040F44000704781F0004102E000BFC2
:1002800083F0004330B54FEA41044FEA430594EA56
:10029000050F08BF90EA020F1FBF54EA000C55EA91
:1002A000020C7FEA645C7FEA655C00F0E2804FEA62
:1002B0005454D4EB5555B8BF6D420CDD2C4480EA44
:1002C000020281EA030382EA000083EA010180EA74
:1002D000020281EA0303362D88BF30BD11F0004FC2
:1002E0004FEA01314FF4801C4CEA113102D04042F8
:1002F00061EB410113F0004F4FEA03334CEA133333
:1003000002D0524263EB430394EA050F00F0A7804A
:10031000A4F10104D5F1200E0DDB02FA0EFC22FA45
:1003200005F2801841F1000103FA0EF2801843FA39
:1003300005F359410EE0A5F120050EF1200E012A2A
:1003400003FA0EFC28BF4CF0020C43FA05F3C01868
:1003500051EBE37101F0004507D54FF0000EDCF1E1
:10036000000C7EEB00006EEB0101B1F5801F1BD38A
:10037000B1F5001F0CD349085FEA30004FEA3C0C8E
:1003800004F101044FEA445212F5800F80F09A8084
:10039000BCF1004F08BF5FEA500C50F1000041EB88
:1003A000045141EA050130BD5FEA4C0C404141EB8C
:1003B0000101013C28BFB1F5801FE9D291F0000F87
:1003C00004BF01460020B1FA81F308BF2033A3F136
:1003D0000B03B3F120020CDA0C3208DD02F1140C2D
:1003E000C2F10C0201FA0CF021FA02F10CE002F168
:1003F0001402D8BFC2F1200C01FA02F120FA0CFC61
:10040000DCBF41EA0C019040E41AA2BF01EB0451A9
:10041000294330BD6FEA04041F3C1CDA0C340EDCA7
:1004200004F11404C4F1200220FA04F001FA02F3EA
:1004300040EA030021FA04F345EA030130BDC4F1A8
:100440000C04C4F1200220FA02F001FA04F340EA9D
:100450000300294630BD21FA04F0294630BD94F04E
:10046000000F83F4801306BF81F480110134013D35
:100470004EE77FEA645C18BF7FEA655C29D094EAA6
:10048000050F08BF90EA020F05D054EA000C04BF24
:100490001946104630BD91EA030F1EBF002100200F
:1004A00030BD5FEA545C05D14000494128BF41F0AE
:1004B000004130BD14F580043CBF01F5801130BD12
:1004C00001F0004545F0FE4141F470014FF000009D
:1004D00030BD7FEA645C1ABF194610467FEA655C4E
:1004E0001CBF0B46024650EA013406BF52EA0335F0
:1004F00091EA030F41F4002130BD00BF90F0000FDE
:1005000004BF0021704730B54FF4806404F1320419
:100510004FF000054FF0000150E700BF90F0000FD2
:1005200004BF0021704730B54FF4806404F13204F9
:1005300010F0004548BF40424FF000013EE700BFC9
:1005400042004FEAE2014FEA31014FEA02701FBF59
:1005500012F07F4393F07F4F81F06051704732F08B
:100560007F4208BF704793F07F4F04BF41F40021E2
:10057000704730B54FF4607401F0004521F0004140
:100580001CE700BF50EA010208BF704730B54FF0CA
:1005900000050AE050EA010208BF704730B511F0CB
:1005A000004502D5404261EB41014FF4806404F103
:1005B00032045FEA915C3FF4D8AE4FF003025FEA89
:1005C000DC0C18BF03325FEADC0C18BF033202EB0D
:1005D000DC02C2F1200300FA03FC20FA02F001FA67
:1005E00003FE40EA0E0021FA02F11444BDE600BF0A
:1005F0004FF0FF3C06E000BF4FF0010C02E000BFEF
:100600004FF0010C4DF804CD4FEA410C7FEA6C5CD1
:100610004FEA430C18BF7FEA6C5C1BD001B050EA74
:10062000410C0CBF52EA430C91EA030F02BF90EA5F
:10063000020F0020704710F1000F91EA030F58BF1E
:10064000994208BF90422CBFD8176FEAE37040F080
:10065000010070474FEA410C7FEA6C5C02D150EA1E
:10066000013C07D14FEA430C7FEA6C5CD6D152EAD9
:10067000033CD3D05DF8040B704700BF844610469E
:1006800062468C461946634600E000BF01B5FFF79D
:10069000B7FF002848BF10F1000F01BD4DF808ED6D
:1006A000FFF7F4FF0CBF012000205DF808FB00BF3E
:1006B0004DF808EDFFF7EAFF34BF012000205DF898
:1006C00008FB00BF4DF808EDFFF7E0FF94BF0120E5
:1006D00000205DF808FB00BF4DF808EDFFF7CEFFE6
:1006E00094BF012000205DF808FB00BF4DF808ED25
:1006F000FFF7C4FF34BF012000205DF808FB00BFF6
:1007000080F0004002E000BF81F0004142001FBFC6
:100710005FEA410392EA030F7FEA226C7FEA236CCF
:100720006AD04FEA1262D2EB1363C1BFD2184140C4
:1007300048404140B8BF5B42192B88BF704710F05A
:10074000004F40F4000020F07F4018BF404211F0FD
:10075000004F41F4000121F07F4118BF494292EA65
:10076000030F3FD0A2F1010241FA03FC10EB0C0091
:10077000C3F1200301FA03F100F0004302D549421E
:1007800060EB4000B0F5000F13D3B0F1807F06D3CB
:1007900040084FEA310102F10102FE2A51D2B1F1C3
:1007A000004F40EBC25008BF20F0010040EA0300B8
:1007B0007047490040EB0000013A28BFB0F5000F38
:1007C000EDD2B0FA80FCACF1080CB2EB0C0200FAEE
:1007D0000CF0AABF00EBC25052421843BCBFD0403D
:1007E0001843704792F0000F81F4000106BF80F4B7
:1007F00000000132013BB5E74FEA41037FEA226C7A
:1008000018BF7FEA236C21D092EA030F04D092F044
:10081000000F08BF0846704790EA010F1CBF002078
:10082000704712F07F4F04D1400028BF40F00040D5
:10083000704712F100723CBF00F50000704700F0F5
:10084000004343F0FE4040F4000070477FEA22621C
:1008500016BF08467FEA23630146420206BF5FEAED
:10086000412390EA010F40F4800070474FF00003ED
:1008700004E000BF10F0004348BF40425FEA000CB4
:1008800008BF704743F0964301464FF000001CE05C
:1008900050EA010208BF70474FF000030AE000BFB2
:1008A00050EA010208BF704711F0004302D54042F0
:1008B00061EB41015FEA010C02BF84460146002062
:1008C00043F0B64308BFA3F18053A3F50003BCFA7D
:1008D0008CF2083AA3EBC25310DB01FA02FC63442A
:1008E00000FA02FCC2F12002BCF1004F20FA02F231
:1008F00043EB020008BF20F00100704702F1200224
:1009000001FA02FCC2F1200250EA4C0021FA02F284
:1009100043EB020008BF20EADC7070474FF0FF3C59
:1009200006E000BF4FF0010C02E000BF4FF0010CE9
:100930004DF804CD4FEA40024FEA41037FEA226CB2
:1009400018BF7FEA236C11D001B052EA530C18BFD4
:1009500090EA010F58BFB2EB030088BFC81738BF39
:100960006FEAE17018BF40F0010070477FEA226C27
:1009700002D15FEA402C05D17FEA236CE4D15FEA23
:10098000412CE1D05DF8040B704700BF8446084657
:100990006146FFE70FB5FFF7C9FF002848BF10F118
:1009A000000F0FBD4DF808EDFFF7F4FF0CBF01205D
:1009B00000205DF808FB00BF4DF808EDFFF7EAFFE7
:1009C00034BF012000205DF808FB00BF4DF808EDA2
:1009D000FFF7E0FF94BF012000205DF808FB00BF97
:1009E0004DF808EDFFF7D2FF94BF012000205DF81D
:1009F00008FB00BF4DF808EDFFF7C8FF34BF01202A
:100A000000205DF808FB00BF42000ED2B2F1FE4F9D
:100A10000BD34FF09E03B3EB126209D44FEA0023CD
:100A200043F0004323FA02F070474FF00000704794
:100A300012F1610F01D1420202D14FF0FF30704735
:100A40004FF00000704700BF70B50F4B0F4DAB4229
:100A5000A3EB050607D00024B61055F8043B01347B
:100A60009847A642F9D800F00BFD094D094B5E1BD3
:100A7000AB424FEAA60606D0002455F8043B0134E9
:100A80009847A642F9D870BD0000000000000000A1
:100A90000000000000000000054A936943F4206351
:100AA00043F00C039361D36943F00503D3617047AE
:100AB000001002400F4B1B680F4AA2FB032C4FEAA9
:100AC0009C1C002113E00CF1FF324FF0E0235A612F
:100AD00000229A6105221A614FF0E0231B6913F48A
:100AE000803FF9D04FF0E02300221A6101318142AA
:100AF000E9D3704700000020D34D621008B5FFF71E
:100B0000CBFF00F0EBF800F08FF800F063FA00F094
:100B1000D9F900F0F5F91DE000F032FA00F07CFAA6
:100B20003D4B187028B900F083FA3C4B1870002830
:100B3000F2D03B4B00221A700AE0374B1B78012B96
:100B400025D0354B1B781BB9344B1B78012B43D078
:100B500000F016FA00F060FA2F4C207000F068FAEE
:100B60002E4B18702378002BE7D12C4B1B78002BD1
:100B7000E3D16420FFF79EFF284B1B78002BE7D1C1
:100B80002378002BE4D1264B01221A70C6E7234BB1
:100B90001B78002BD5D16420FFF78CFF1E4B1B78F0
:100BA000012BD5D11D4B1B78002BD1D11C4B03221F
:100BB0001A7001E000F0E4F900F02EFA164B1870FC
:100BC000012805D100F034FA144B18700028F1D038
:100BD000134B00221A70BBE76420FFF76BFF0E4B2C
:100BE0001B78002BB4D10D4B1B78012BB0D10C4BD3
:100BF00002221A7001E000F0C3F900F00DFA064B72
:100C0000187028B900F014FA044B18700128F2D0BB
:100C1000034B00221A709BE705000020060000200D
:100C20003C0000207047000010B5174CA36843F04B
:100C30000103A3600120FFF73DFFA36843F0080311
:100C4000A360114B9B6813F0080FFAD10E4A93680A
:100C500043F0040393600C4B9B6813F0040FFAD12C
:100C6000094B00225A6003219960DA625A63072116
:100C70001961996841F001019960044B4FF480219A
:100C8000196083F8122310BD0024014000E100E048
:100C900008B5FFF7EBFD0649FFF73AFA4FF066514A
:100CA000FFF736FA034B186000F094FB08BD00BF55
:100CB0003333534040000020074B1B6813F0020FF2
:100CC00000D1704710B5044CE06CFFF7E1FF2368DA
:100CD00023F00203236010BD00240140724A136810
:100CE00023F0C0031360136823F0300313605368CC
:100CF00023F440035360536823F440135360536854
:100D000043F400035360536843F440135360674B4C
:100D1000196821F00C011960196821F003011960AC
:100D2000196821F00C011960196841F0030119607C
:100D3000196821F0C0011960196821F030011960AB
:100D4000196821F0C0011960196841F0300119607B
:100D5000196821F440611960196821F44071196023
:100D6000196821F440611960196841F440711960F3
:100D7000196821F440411960196821F44051196043
:100D8000196821F440411960196841F44051196013
:100D9000196821F440211960196821F44031196063
:100DA000196821F440211960196841F44031196033
:100DB000196821F440011960196821F44011196083
:100DC000196821F440011960196841F44011196053
:100DD000196821F040611960196821F040711960AB
:100DE000196821F040611960196841F0407119607B
:100DF000196821F040411960196821F040511960CB
:100E0000196821F040411960196841F0405119609A
:100E1000596821F00C015960596821F003015960AB
:100E2000596821F00C015960596841F0030159607B
:100E3000596821F0C0015960596821F030015960AA
:100E4000596821F0C0015960596841F0300159607A
:100E5000596821F440615960596821F44071596022
:100E6000596821F440615960596841F440715960F2
:100E70000F491961536823F070635360536843F05E
:100E800000635360D36843F48043D360536823F016
:100E900070435360536843F000435360D36843F496
:100EA0000043D360704700BF000C014000080140C0
:100EB0000000FF07014B024A1A6170470008014019
:100EC0000000FF074FF080439A6822F007029A6003
:100ED00040F21F329A6240F2E732DA62DA6842F098
:100EE0000102DA60054A4FF080511160002182F85A
:100EF0001C131A6842F001021A60704700E100E01A
:100F00000D4B9A6822F007029A6040F21F329A62F3
:100F100040F2F312DA62DA6842F00102DA60074A5C
:100F20004FF000511160002182F81D131A6842F041
:100F300001021A60704700BF0004004000E100E0B9
:100F4000044B01221A704FF08042136923F0010311
:100F5000136170473D000020084B1B6913F0010F1F
:100F60000AD0064A136923F00103136102F5903297
:100F7000936843F480039360704700BF000400400F
:100F800008B50B4B1B784BB10A4B1B78032B05D8CC
:100F9000DFE803F002050B0800F086F808BD00F05A
:100FA0008DF8FBE700F094F8F8E700F0ADF8F5E70E
:100FB0003D0000203C000020044B1878C72303FBB1
:100FC00000F0034B83FB0030401170470400002009
:100FD0001F85EB5110B50F4C40F21F33A362C7239E
:100FE000E362A36943F06803A361FFF7E5FF606371
:100FF000236A23F008032362236A43F00403236275
:10100000636C43F400436364236843F0010323608B
:1010100010BD00BF002C0140044B9B6813F4804FAF
:1010200001D0012070470020704700BF000C014034
:10103000044B9B6813F4004F01D00120704700203F
:10104000704700BF000C014008B5FFF733FF124B9B
:101050001B78012B12D0022B17D02BB90F4A126824
:1010600042F480720E490A615A1C0E4B83FB021334
:1010700003EB4303D31A084A137008BD074A5268AA
:1010800042F4007206490A61EEE7044A926842F4AB
:10109000806203490A61E7E73E0000204400002027
:1010A000000801405655555508B5034B186800F027
:1010B000F3F8FFF7C9FF08BD4000002008B5FFF7AF
:1010C0007BFFFFF7D3FB00F0E7F8FFF7BDFF08BD9C
:1010D00010B50B4C0B492068FFF716FB20604FF052
:1010E0007E51FFF773FC30B9054B186800F0D4F857
:1010F000FFF7AAFF10BD4FF07E522260F4E700BF59
:10110000080000200AD7A33C10B5094C0949206803
:10111000FFF7FCFA20600849FFF762FC08B1064AB5
:101120002260034B186800F0B7F8FFF78DFF10BD81
:10113000080000200AD7A33C00004842092938D8FB
:10114000DFE801F0050A0F14191E23282D32036869
:1011500043F0BF0303607047036843F086030360F6
:101160007047036843F0DB0303607047036843F094
:10117000CF0303607047036843F0E60303607047E2
:10118000036843F0ED0303607047036843F0FD0319
:1011900003607047036843F0870303607047036888
:1011A00043F0FF0303607047036843F0EF030360FD
:1011B0007047036843F0BF0303607047092938D8BC
:1011C000DFE801F0050A0F14191E23282D320368E9
:1011D00043F03F0303607047036843F00603036076
:1011E0007047036843F05B0303607047036843F094
:1011F0004F0303607047036843F066030360704762
:10120000036843F06D0303607047036843F07D0398
:1012100003607047036843F0070303607047036887
:1012200043F07F0303607047036843F06F0303607C
:101230007047036843F03F030360704770B50D4685
:10124000124BA3FB0013DC08214604EB8404A0EB43
:101250004400C4B20E4B002098605860186062B120
:101260001E461846FFF76AFF2146301DFFF7A6FF0E
:1012700029460848FFF7A2FF70BD054E3046FFF72C
:101280009DFF2146301DFFF759FFF1E7CDCCCCCCB7
:10129000440000204C00002038B504460021FFF730
:1012A0008BFB30BB20492046FFF79AFB08BB20464A
:1012B000FFF7AAFBC5B22046FFF742F918A3D3E90E
:1012C0000023FFF709FAA8B12846FFF7D3FA014631
:1012D0002046FFF719FA1549FEF71AFF4FF07C5127
:1012E000FFF714FAFFF790FBC1B200222846FFF780
:1012F000A5FF38BD2846FFF7BDFA01462046FFF797
:1013000003FA0B49FEF704FF4FF07C51FFF7FEF99B
:10131000FFF77AFBC1B20122E8E700BFAFF300801C
:101320003D0AD7A370FD2340CDCCC7420000C84280
:10133000000020412DE9F04104460D46466A8662D0
:1013400041624161476800213846FFF72BFBB8B97D
:10135000D4F8188029463846FEF7DAFE01464046A2
:10136000FFF7D4F9A061E7683946FFF743FB00B106
:10137000A76127693946A069FFF71EFB00B1A76185
:1013800031462846FFF7C0F90646E06194F82C3054
:101390006BB9012384F82C3029462068FEF7B8FE8B
:1013A000A169FFF7B3F92062206ABDE8F081294600
:1013B0002068FEF7ADFEA169FFF7A8F90546A16810
:1013C0003046FEF7A5FE01462846FFF79FF920624A
:1013D000EAE7000010B5124B1878FFF74BFA044605
:1013E000104B1968104B1868FFF78EF901460F482B
:1013F000FFF7A0FF01462046FFF788F904460021C9
:10140000FFF7E4FA40B90A492046FFF7E9FA30B19C
:10141000034B64221A7002E0014B00221A7010BDC7
:101420000400002040000020080000200C000020E4
:101430000000C842FFF7F6FB0B480C490C4A00239A
:1014400002E0D458C4500433C4188C42F9D3094A7A
:10145000094C002301E013600432A242FBD3FFF7E2
:10146000F3FAFFF74BFB7047000000203C00002020
:10147000981400083C00002050000020FEE7000007
:10148000F8B500BFF8BC08BC9E467047F8B500BF71
:08149000F8BC08BC9E46704741
:1014980000127A000A0101000000F04117B7D138A4
:1014A80017B7D13800000000000048420000803F14
:1014B8000000000000000000000000000000000024
:0C14C80000000000000000000000000018
:0400000508001435A6
:00000001FF
