:020000040800F2
:100000000080012091CE0008F9720008FB72000800
:10001000FD720008FF720008017300080000000074
:100020000000000000000000000000000373000852
:100030000573000800000000077300085D770008E2
:10004000E1CE0008E1CE0008E1CE0008E1CE0008D4
:10005000E1CE0008E1CE0008D5740008E1CE00082A
:10006000E1CE0008E1CE0008E1CE000809730008E7
:100070009573000821740008E1CE0008E1CE000865
:10008000E1CE0008E1CE0008E1CE0008E1CE000894
:10009000E1CE0008E1CE0008E1CE0008E1CE000884
:1000A000E1CE0008E1CE0008E1CE0008E1CE000874
:1000B000E1CE0008E1CE0008E1CE0008E1CE000864
:1000C000E1CE0008E1CE0008E1CE0008E1CE000854
:1000D000E1CE0008E1CE0008E1CE0008AD740008D2
:1000E000E1CE0008E1CE0008E1CE0008E1CE000834
:1000F000E1CE0008E1CE0008E1CE0008E1CE000824
:10010000E1CE0008E1CE0008E1CE0008E1CE000813
:10011000E1CE0008E1CE0008A5C10008E1CE00084C
:10012000E1CE0008E1CE0008E1CE0008B574000879
:10013000C5740008E1CE0008E1CE0008E1CE000859
:10014000E1CE0008E1CE0008E1CE0008E1CE0008D3
:10015000E1CE0008E1CE0008E1CE0008E1CE0008C3
:10016000E1CE0008E1CE0008E1CE0008E1CE0008B3
:10017000E1CE0008E1CE0008E1CE0008000000005A
:08018000E1CE0008E1CE000809
:10018800D0ED097AC0ED0A7A80ED090A80ED050AFA
:1001980090ED017AB5EE407AF1EE10FA1BD0D0ED71
:1001A800066A27EE007A36EE877A80ED067AD0ED79
:1001B800036AB4EEE67AF1EE10FA01DDC0ED066AE4
:1001C800D0ED066A90ED047AF4EEC76AF1EE10FA03
:1001D80001D580ED067A70EE677AC0ED077A90F85F
:1001E8002C307BB9012380F82C30D0ED007A67EEF3
:1001F800807A90ED067A77EE877AC0ED087A90EDEE
:10020800080A704790ED007A27EE007AD0ED066A6A
:1002180037EE267AD0ED026A67EEA67A77EE277A6D
:10022800C0ED087AEBE700234361C3610362836191
:1002380043628362002380F82C307047B5EEC00A11
:10024800F1EE10FA00D47047B1EE400AFBE707EE72
:10025800900AF8EEE77A9FED0A7A67EE877A9FEDC3
:10026800097AC7EE876A9FED087AC6EE877A9FED0E
:10027800077A67EE877A9FED060A37EEC00A70475D
:100288008FC2953FFFFF7F4B295C4F3F00007A44A8
:100298000080884338B52DED028BDFED247A80EE9F
:1002A800278A0CF091FC04460D4618EE100A0CF053
:1002B8009DFC02460B46204629460CF047F84FF0B5
:1002C80060421B4B0CF06CF90CF052FA07EE100A66
:1002D80001231D2B27D8174A02EBC302D2ED017A5E
:1002E800F4EEC77AF1EE10FA02D90133DBB2F0E787
:1002F800591E104A02EBC101D1ED016A77EEE66A98
:10030800F1EE045A85EEA66A02EBC302D2ED006A4A
:1003180067EE867A76EEE77A27EE067A37EE270AD0
:10032800BDEC028B38BD9FED040AF9E700401C467E
:10033800FFFF6F4110E600080000B44238B52DED0C
:10034800028BDFED247A80EE278A0CF03DFC044610
:100358000D4618EE100A0CF049FC02460B462046E2
:1003680029460BF0F3FF4FF060421B4B0CF018F9D5
:100378000CF0FEF907EE100A01231D2B27D8174AA7
:1003880002EBC302D2ED3D7AF4EEC77AF1EE10FA31
:1003980002D90133DBB2F0E7591E104A02EBC10162
:1003A800D1ED3D6A77EEE66AF1EE045A85EEA66A6B
:1003B80002EBC302D2ED3C6A67EE867A76EEE77A04
:1003C80027EE067A37EE270ABDEC028B38BD9FED83
:1003D800040AF9E700401C46FFFF6F4110E60008D9
:1003E8000000B44238B52DED028BDFED247A80EEA3
:1003F800278A0CF0E9FB04460D4618EE100A0CF0AB
:10040800F5FB02460B46204629460BF09FFF4FF0AE
:1004180060421B4B0CF0C4F80CF0AAF907EE100A66
:1004280001231D2B27D8174A02EBC302D2ED797A94
:10043800F4EEC77AF1EE10FA02D90133DBB2F0E735
:10044800591E104A02EBC101D1ED796A77EEE66ACE
:10045800F1EE045A85EEA66A02EBC302D2ED786A81
:1004680067EE867A76EEE77A27EE067A37EE270A7F
:10047800BDEC028B38BD9FED040AF9E700401C462D
:10048800FFFF6F4110E600080000B44238B52DEDBB
:10049800028BDFED247A80EE278A0CF095FB044668
:1004A8000D4618EE100A0CF0A1FB02460B4620463A
:1004B80029460BF04BFF4FF060421B4B0CF070F8D5
:1004C8000CF056F907EE100A01231D2B27D8174AFE
:1004D80002EBC302D2EDB57AF4EEC77AF1EE10FA68
:1004E80002D90133DBB2F0E7591E104A02EBC10111
:1004F800D1EDB56A77EEE66AF1EE045A85EEA66AA2
:1005080002EBC302D2EDB46A67EE867A76EEE77A3A
:1005180027EE067A37EE270ABDEC028B38BD9FED31
:10052800040AF9E700401C46FFFF6F4110E6000887
:100538000000B4422DE9F04F8DB055EC104B064643
:100548008A466FA3D3E9002351EC110B0BF0FEFE92
:1005580002460B46204629460CF0E8F968A3D3E981
:1005680000230CF01DF804460D4601220023CDE9B6
:100578000423CDE90A2300220023CDE90623CDE98F
:100588000823CDE900450396089EDDF82480DDE9BF
:1005980000010CF0CFFC034606FB01F208FB002229
:1005A800A6FB007C62440A9C3F190B9C42EB0402A8
:1005B800B7F5800F72F1000C3BDADDF810C0DDF8FA
:1005C80014E00CFB01FB0EFB00BBACFB0339CB4476
:1005D800069C1B19079C4BEB040BCDF818C0CDF8F3
:1005E8001CE00493CDF814B00A96CDF82C80089737
:1005F80009920CF025FB06460F46DDE900230CF0B6
:10060800A3FBB0B932463B46DDE900010CF08EF998
:1006180002460B46002038490BF0C2FF04460D463F
:10062800CDE9004532A3D3E900230CF0B5FB00283F
:10063800AAD0039E089CDDF824B0012C7BF10003AE
:1006480005DB049D059F012D77F100032BDADDF80A
:100658002880DDF82C902948B0EB080022465B463C
:1006680069EB49010CF0D4F80346049D05FB01F73A
:10067800059A02FB0077A5FB00521744069AAD18AD
:10068800079A47EB02070495059704FB01F10BFB5A
:100698000011A4FB0334214418EB030441EB090BBC
:1006A8000894CDF824B022465B46284639460CF01B
:1006B800AFF80CF0C5FA80468946204659460CF03A
:1006C800BFFA42464B460BF041FE80468946284613
:1006D80039460CF0B5FA42464B460CF027F90CF0B7
:1006E80065FB3060CAF800400DB0BDE8F08F00BF70
:1006F8000000C0FFFFFFDF410000F03FFFFF3F00A9
:1007080000000000D0125341F8B52DED028B0CF01B
:100718005BFA1BA3D3E900230BF042FF06460F4602
:10072800154D2C4654F8040B0CF060FA10A3D3E9CD
:1007380000230CF0FDF802460B46304639460CF013
:10074800F7F841EC180B0D4E70680CF03DFA41ECCF
:10075800110B31462046B0EE480AF0EE680AFFF762
:10076800E9FE01232B72BDEC028BF8BDAFF30080CC
:100778009318D06E631FF141500300200000002041
:100788005A643BDF4FFFA040F8B52DED028B1E4C9D
:10079800E368C51828460CF017FA17A3D3E9002315
:1007A8000BF0FEFE06460F46E560254655F8040B9D
:1007B8000CF01CFA12A3D3E900230CF0B9F8024696
:1007C8000B46304639460CF0B3F841EC180B0F4E87
:1007D80070680CF0F9F941EC110B31462846B0EE7F
:1007E800480AF0EE680AFFF7A5FE01232372BDEC64
:1007F800028BF8BDAFF300805A643BDF4FFFA04087
:100808000000D06E631FF14150030020000000205B
:10081800034B044A9A6002F188329A60704700BF1D
:100828000020024023016745024A536943F0004310
:100838005361704700200240034B044ADA6002F11A
:100848004432DA60704700BF002002403B2A190892
:10085800024A536943F080435361704700200240C5
:10086800764B1B68764A936040F28442934200D0EC
:10087800704710B5714A9168714BD9601169196157
:1008880091695961116A9961916AD961116B5960CD
:10089800916B6C484160116C1960916CC160116D6D
:1008A8000160916D1962116E5962916E9962116FB2
:1008B800D962916F0161D2F880104161D2F8881035
:1008C8001966D2F890105966D2F898109966D2F83D
:1008D800A010C3F85011D2F8A810C3F85411D2F8D8
:1008E800B010C3F85811D2F8B810C3F8C010D2F835
:1008F800C010C3F8C410D2F8C810C3F8C810D2F892
:10090800D010C3F89010D2F8D810C3F89410D2F8C9
:10091800E010C3F89810D2F8E8101963D2F8F01074
:100928005963D2F8F810996347490C68C3F88041B5
:100938008C68C3F884410C69C3F88841D2F818411F
:100948008461D2F82041C3F84042D2F82841C3F864
:100958004442D2F83041C3F84842D2F83841C3F88B
:100968004C42D2F84041C3F850428C6CC3F8544210
:100978000C6DC3F858428C6DC3F85C420C6EC3F81A
:100988006042D2F86841C3F86442D1F870C0C3F835
:1009980020C1D1F878C0C3F824C1D1F880C0C3F809
:1009A80028C1D1F888C0C3F868C2D1F890C0C3F88C
:1009B8006CC2D1F898C0C3F870C2D1F8A0C0C3F80F
:1009C80074C2D1F8A8C0C3F878C2D1F8B0C0C3F8CF
:1009D8007CC2D1F8B8C0C3F880C2D1F8C0C0C0F892
:1009E8001CC0D1F8C8C0C0F820C0D1F8D0104162EE
:1009F800D2F8D811C3F88412D2F8E0318362002308
:100A08004FF4F47217E002F1006101F5F83108685B
:100A18000C4901EB830CCCF82C000C4810440068FE
:100A280003F1200E01EB8E01C86209495158CCF838
:100A38002C11183201331F2BE5DD10BD00F0010821
:100A4800000000205003002000F1010808F0010810
:100A580010F001081A4B1B6913F4803FFAD1184BA8
:100A68001B6913F0010F02D0154B01221A61144BB8
:100A780020221A6180221A615A6942F080725A61F2
:100A88005A6922F400625A615A6942F002025A61B4
:100A98005A6922F4FF6242F4F8725A615A6942F4C0
:100AA80080325A61064B1B6913F0010FFAD0044BD0
:100AB80001221A615A6922F002025A61704700BF86
:100AC80000200240144B1B6913F4803FFAD1124BEB
:100AD8001B6913F0010F02D00F4B01221A610E4B54
:100AE80020221A6180221A615A6942F080725A6182
:100AF8005A6942F001025A6103680B604B60064B69
:100B08001B6913F0010FFAD0034B01221A615A69CD
:100B180022F001025A6170470020024010B50446D5
:100B2800FFF776FEFFF788FE274B1B6913F4803F1B
:100B3800FAD1254B1B6913F0010F02D0224B012279
:100B48001A61012C30D04DF6AD639C4234D01E4A58
:100B5800536943F4003353611B4B1B6913F4803F03
:100B6800FAD1194B1B6913F0010F02D0164B012261
:100B78001A61154B5A6922F400325A615A6942F0D7
:100B880000625A61104B1B6913F4803FFAD10E4B77
:100B98001B6913F0010F02D00B4B01221A61FFF7FA
:100BA80057FEFFF741FE10BD074A136A23F0FF0303
:100BB80043F0BB031362CAE7034A136A23F0FF0337
:100BC80043F0AA031362C2E70020024010B50023D5
:100BD800194618469FED417A00E001331F2B1ADCB5
:100BE8003F4A02EB8302D2F82C21012AF5D13C4A74
:100BF80002EB8302D2ED0B7AF4EEC07AF1EE10FA32
:100C0800EBD8F4EEC77AF1EE10FAE6DB1846B0EE50
:100C1800677A0121E1E700231C469E46DFED316A31
:100C280000E001331F2B20DC2D4A02EB8302D2F8AF
:100C38002C21012AF5D10029F3D0294A02EB800C96
:100C48009CED0B7A02EB8302D2ED0B7AB4EEE77AD5
:100C5800F1EE10FAE5D5F4EEE67AF1EE10FAE0D806
:100C68000C469E46F0EE676ADBE769B37CB31C4A24
:100C780002EB800393ED0B6A00F1200302EB830380
:100C8800D3ED0B5A02EB8E03D3ED0B7A0EF1200E47
:100C980002EB8E0292ED0B7AB4EE676AF1EE10FA6F
:100CA80018D075EEC76A66EE806A26EE077A65EE9A
:100CB800A75A37EE657A36EE877AB1EE477A77EE3D
:100CC800C67A87EE270A01E09FED070A10BD9FED5F
:100CD800060AFBE79FED040AF8E700BF0000BEC262
:100CE800500300200000BE420000000008B51F4B62
:100CF800B3F8AC3113F4007F05D01C4BB3F8AE3118
:100D080013F4007F00D108BD184A23F40073A2F839
:100D1800AE31D2ED6C7AB8EEE77A154BD3EDA07A06
:100D280067EE277A67EE277A67EE277AD2ED6D6A43
:100D380067EE266A67EE266A77EEA67AD2ED6E6AC5
:100D480027EE267A77EE877A92ED6F7A77EE877AB2
:100D5800C2ED707AFDEEE77A17EE900AD368184470
:100D6800C2F8C401FFF7D0FCCDE700BF5003002054
:100D7800000000202E4BB3F8AC3113F4807F56D01E
:100D88002B4BB3F8AE3113F4807F50D010B5284AFE
:100D980023F48073A2F8AE31936A002B3FD1134637
:100DA80092ED727A67EE077A224AD2ED9E6A67EE72
:100DB800A67AC3ED737AD2ED9F6A27EE267A77EE8C
:100DC800877AC3ED737A92EDA07A77EE277AC3ED2E
:100DD800737A174B0022C3F8D021D3ED087AF5EEC9
:100DE800407AF1EE10FA09D093ED737AD3ED096ADF
:100DF80037EE667AC7EE276AC3ED746A0C4BD3EDFB
:100E0800757AF8EEE77A93ED747A77EE877AFDEEE5
:100E1800E77AC3ED767A012283F8DC2110BD044C11
:100E280094ED720AFFF7D2FE84ED730AD1E770479A
:100E38005003002000000020062A0AD00A2A0FD0FA
:100E48008AB9094BD3F84C220A60D3F848320360B8
:100E580070474AF6C8730B6049F640430360704711
:100E680044F620630360704700000020431E092BEE
:100E78004BD8DFE803F0050D1C4A4A2A354A4A4395
:100E8800224B03EB8000D3F80C32C0F8E0317047F6
:100E98001E4B03EB80031E4AD2ED067AFDEEE77A7D
:100EA800C3ED847A4FF6FF72C3F8E0217047174B01
:100EB80003EB8003164AD2ED077AFDEEE77AC3ED1D
:100EC800847A0022C3F8E0217047104B03EB8003BB
:100ED8000022C3F810224AF20462C3F8E0217047E6
:100EE8000A4B03EB8000D3ED8F7AFDEEE77AC0ED75
:100EF800847AD3F84032C0F8E0317047034B03EBF3
:100F08008000D3F84432C0F81032704750030020F4
:100F180000000020D0ED007A012903D0022900F05A
:100F280085807047022A2CD0032A54D0012AF8D190
:100F3800F5EEC07AF1EE10FA19D49FED667AF4EE68
:100F4800C77AF1EE10FA15D8634AD2F8483201335D
:100F5800C2F84832604BD3F84832F92BE1DD5E4BDA
:100F6800FA22C3F84822012283F84C227047F1EE96
:100F7800677AE2E7584B0022C3F8482283F84C22EC
:100F8800E8E7F5EEC07AF1EE10FA1AD4534B93ED78
:100F9800987AB4EEE77AF1EE10FA15DB4E4AD2F8F9
:100FA80050320133C2F850324B4BD3F85032632BD6
:100FB800B7DD494B6422C3F85022012283F854223A
:100FC8007047F1EE677AE1E7434B0022C3F85022FD
:100FD80083F85422E8E7F5EEC07AF1EE10FA1BD454
:100FE800B6EE007AF4EEC77AF1EE10FA17D83A4A5C
:100FF800D2F858320133C2F85832374BD3F8583246
:10100800B3F5FA7F8DDB344B4FF4FA72C3F85822EC
:10101800012283F85C227047F1EE677AE0E72E4BF5
:101028000022C3F8582283F85C22E6E7012A7FF4FD
:1010380078AF294A92F85D320133DBB282F85D322B
:101048000A2B7FF46EAF1346002283F85D22234BF0
:10105800D3F8883249F28832934203DD1E4A0121CF
:10106800C2F8601246F67742934204DC1A4A4FF0FF
:10107800FF31C2F86012184AD2F86022B2F1FF3F7D
:1010880002D0012A13D070471449D1F88C22013AB2
:10109800C1F88C22104A012182F86412B3F5004F7E
:1010A8007FF73FAF13460022C3F8602270470B4911
:1010B800D1F88C220132C1F88C22074A012182F82A
:1010C8006412B3F5004FBFF62CAF13460022C3F8E5
:1010D800602226E70000964250030020000000200E
:1010E80070B584B0044600230393002302934FF69F
:1010F800FF730193024601A902A8FFF79DFEAC4BBE
:10110800B3F8AC31234113F0010F00F03081A84B44
:10111800B3F8AE3143FA04F212F0010F00F0A080E8
:101128000125A540EA4312B2A1491340A1F8AE3106
:10113800B1F8663243FA04F212F0010F17D12B43CB
:10114800A1F866320A2C08D08CB9994B03EB8402BB
:10115800D3F86C32C2F8E03109E0964BD3F890220C
:101168000B4601EB8401C1F8E021C3F86822204650
:10117800FFF77CFE904B03EBC40393F8C433012BB9
:101188001BD0A3BB8C4B03F5836202EB840292ED68
:10119800007A03EBC403D3F8C0331B68844A02EB1C
:1011A8008402D2F810229B1A07EE903AF8EEE77AFA
:1011B80067EE277ACDED037A19E07F4B03F583625A
:1011C80002EB8402D2ED007A03EBC403D3F8C033F8
:1011D80093ED007A764B03EB8403D3ED846AF8EE43
:1011E800E66A37EE667A67EE877ACDED037A0A2CDF
:1011F8003DD034B9DDED037AFDEEE77A6C4BC3EDF3
:101208009D7A2246012103A8FFF784FE6A4B03EB6F
:10121800C403D3F84424694B9A4205D0664B03EBC8
:10122800C40393F8483453B3634B03EBC40393F8F4
:101238004834012B50D00A2C00F08F8044B95E4B03
:1012480003EBC403D3F844341A68594BC3F880221B
:101258005B4B53F824305B4A934201D001221A7049
:101268002246022103A8FFF755FE04B070BDDDED4C
:10127800037AFDEEE77A4E4BC3ED9C7AB9E74C4B07
:1012880003EB8403D3F8E06125F4887525F00105A4
:101298006D056D0D25416D00013D04EB44009DED8C
:1012A800030A494B03EB0010FEF76AFFBDEEC00AC4
:1012B800414B03EBC403D3F8442410EE103A03FB6C
:1012C8000565156002998D4201DA1160B3E701994D
:1012D8008D42B0DB1160AEE7354B03EB8403D3F8E6
:1012E800E06125F4887525F001056D056D0D254132
:1012F8006D00013D04EB44009DED030A324B03EB06
:101308000010FEF73DFFBDEEC00A10EE103A03FBD9
:101318000566294B03EBC403D3F8443407EE906AFF
:10132800F8EEE77AC3ED007A9DED027AB8EEC77A57
:10133800F4EEC77AF1EE10FA02D583ED007A7AE777
:101348009DED017AB8EEC77AF4EEC77AF1EE10FA9D
:10135800FFF671AF83ED007A6DE7174B03EBC4031B
:10136800D3F844341A68124BC3F87C2266E7104B52
:10137800B3F8663243FA04F212F0010F3FF475AF86
:101388000122A240D24312B2094D1340A5F8663299
:1013980004EB44000C4B03EB0010FEF744FF05EB95
:1013A80084050023C5F81032C5F8E0315DE700BFB9
:1013B800500300200000002010E60008C8050020A7
:1013C80094020020D4050020300000200168674BFB
:1013D80093FBF1F3664AC2F890320133C2F89432B3
:1013E800C2F8A0122EE0DFED637A27EE277ABDEE71
:1013F800C77A80ED007A5E4BD3F89022C3F8882232
:10140800C3EDA36A87E0B5EE407AF1EE10FA6DD02D
:10141800BDEEE77AF8EEC76A77EEE67AF5EE407A3F
:10142800F1EE10FA00F08A80013B5149C1F8903280
:101438000132C1F89422BD2B7FD940F602039A42AB
:1014480000F292804A4AD2F8903207EE903AF8EECB
:10145800675AF3EE047A25EEA77AF4EE006A27EECF
:10146800267AD2F8942206EE102AB8EE466A66EE7C
:10147800277A67EEA67AFDEEC76AB8EEE65A37EE27
:10148800457AB5EE407AF1EE10FABCD1FDEEE74AA6
:10149800B8EEE45A37EEC55AB5EE405AF1EE10FAF6
:1014A800B1D1DFED357A87EEA57A314B83EDA67A97
:1014B800C7EE865AC3EDA75AD0ED007AF8EEE77A60
:1014C80037EE676A77EEE57AB4EEE76AF1EE10FA7E
:1014D80089DDDFED287A65EEA75AFDEEE55AC0ED05
:1014E800005AC3F88822C3EDA34A14E09FED227A7C
:1014F800C7EE257A1E4BC3EDA67A9FED1E7A67EEDE
:10150800877AFDEEE77AC0ED007AD3F89022C3F827
:101518008822C3EDA36A164BD3F88822013AC3F890
:10152800B022D3F88C22013AC3F8F02200234FF0FE
:101538008042536202F5A03253627047DFED0E6AB3
:10154800C6EE867A0A4BC3EDA77ADFED0A6A67EE24
:10155800A67AFDEEE77AC0ED007AD3F89422C3F8B4
:10156800882283EDA37AD6E7704700BF80841E00E7
:10157800500300200000C8420024F449FEE782B06E
:101588000A4B1A6E42F001021A661A6E02F0010244
:101598000092009A9A6D42F080529A659B6D03F012
:1015A80080530193019B02B0704700BF00100240B6
:1015B80010B4002208E0974B03EB82030021C3F824
:1015C8002413C3F844130132072AF4DD002168E02C
:1015D800904C04EB8302D2F8240301EB030CD4F8FB
:1015E800644334F82C402044C2F82403D2F844035E
:1015F8002044C2F844030133072B4BDC864AD2F857
:10160800C022032AF7D801A050F822F0D915000803
:10161800251600084D160008751600087D4C04EBC9
:101628008302D2F8240301EB030CD4F8684334F89E
:101638001C402044C2F82403D2F844032044C2F8D2
:101648004403D8E7734C04EB8302D2F8240301EB7C
:10165800030CD4F86C4334F82C402044C2F824031B
:10166800D2F844032044C2F84403C4E7694C04EBAD
:101678008302D2F8240301EB030CD4F8704334F846
:101688001CC06044C2F82403D2F844036044C2F882
:101698004403B0E75F4AD2F874330133C2F87433B5
:1016A80008314F2901DC0023A6E75A4B0022C3F872
:1016B8007823C3F87C2300211FE0564B03EB8102FB
:1016C800D2EDC97AF8EEE77A92EDE07A67EE877A9A
:1016D80093EDDE7A77EE277AC3EDDE7AD2EDD17A12
:1016E800F8EEE77A92EDE87A67EE877A93EDDF7A9B
:1016F80077EE277AC3EDDF7A01310729DDDD464A27
:10170800D2F8C012454B03EB8103D3ED007A414B6D
:1017180093EDDE7A27EE877A83EDDE7AD3EDDF6A02
:1017280067EEA67AC3EDDF7A93EDF06A37EE066AC4
:1017380083EDF06AD3EDF16A77EEA66AC3EDF16A3C
:10174800F1EE045A87EE255A83EDF25A87EEA57A10
:1017580083EDF37A83EDF47AD3F87433D2F8C422A4
:10176800934249DB2C4AC2F8C43207EE903AB8EEED
:10177800E77AC6EE077A274BC3EDF07AF4EE005A03
:1017880027EEA56A83EDF06AC6EE877AC3EDF17A93
:1017980067EEA57AC3EDF17A93ED057A77EEC77A0D
:1017A800C3EDF57A83EDF66A93F8DC3393B19FEDD8
:1017B8001C7A67EE877A174AD2F8E033FDEEE77AAB
:1017C80002EB8301C1EDF97A0133C2F8E033B3F5D6
:1017D800C87F14D00F4B03F6282100220A60C3F8F3
:1017E800C023C3F8C4230022C3F87423B3F8AE217E
:1017F80042F00202A3F8AE215DF8044B704713468D
:101808000022C3F8E02383F8DC23012283F8242A8A
:10181800E0E700BF5003002000000020ACEA000809
:1018280000007A4410B4804B5022A3F82C2A0422DA
:10183800A3F82E2A002208E07B4B03EB8203002149
:10184800C3F8301AC3F8401A0132032AF4DD002124
:1018580069E0754C04EB8302D2F8300A01EB030C03
:10186800D4F8644334F82C402044C2F8300AD2F843
:10187800400A2044C2F8400A0133032B4CDC6B4A6F
:10188800D2F8C022032AF7D801A050F822F000BFEE
:101898005B180008A9180008D1180008F9180008F2
:1018A800614C04EB8302D2F8300A01EB030CD4F844
:1018B800684334F81C402044C2F8300AD2F8400A81
:1018C8002044C2F8400AD7E7574C04EB8302D2F809
:1018D800300A01EB030CD4F86C4334F82C40204454
:1018E800C2F8300AD2F8400A2044C2F8400AC3E7D6
:1018F8004D4C04EB8302D2F8300A01EB030CD4F808
:10190800704334F81CC06044C2F8300AD2F8400A68
:101918006044C2F8400AAFE7434AD2F8503A01336C
:10192800C2F8503A04314F2901DC0023A5E73E4BA9
:1019380003F6542100220A6003F658231A60002295
:101948002FE0394B03EB8200D0F8301A07EE901ADB
:10195800F8EEE77A03F65C2101EB820191ED007A5B
:1019680067EE877A03F6542191ED007A77EE277AAD
:10197800C1ED007A00F52461D1ED007AF8EEE77A3E
:1019880003F66C2101EB820191ED007A67EE877A0C
:1019980003F6582393ED007A77EE277AC3ED007AA1
:1019A8000132032ACDDD204B03F6542292ED007A52
:1019B80003F67C22D2ED007A37EE277A82ED007AA0
:1019C80003F65822D2ED007A03F52862D2ED006AB8
:1019D80077EEA67AC2ED007AD3F8503AC72B1FDD0E
:1019E8009FED136AC7EE066AA2F5286303F67C200A
:1019F800C0ED006A87EE867A82ED007AD3ED057A2B
:101A080037EE677A03F6842181ED007A03F68821A0
:101A1800C1ED006A0021016011600022C3F8502A5C
:101A28005DF8044B704700BF500300200000002001
:101A380000004844094B93F88C3A012B02D0022B42
:101A480006D07047054B03F52962C3F86823704731
:101A5800024B03F53362C3F8682370475003002034
:101A6800094B93F8D03B012B02D0022B06D07047CC
:101A7800054B03F6D432C3F870237047024B03F6C4
:101A88007442C3F870237047500300203C4B93F80E
:101A9800143D012B53D0022B1CD1002263E0384B9C
:101AA80003EB4201B1F8180DD3F8981F0144C3F8AD
:101AB800981FD3F89C1F0131C3F89C1F50329F2AEE
:101AC800EDDD2F4B03F61852C3F86C2303F61A52B8
:101AD800C3F864232A4BD3F89C3F2A4AD2F8C82279
:101AE80093422BDB274AC2F8C832254AD2F8981FFE
:101AF80007EE901AB8EEE77A07EE903AF8EEE77A32
:101B0800C7EE276A02F57A63C3ED006AB2F8AC3112
:101B180013F0800F06D11346C2ED8F6AD2F86C22FB
:101B2800C3F84022164B0022C3F89C2FC3F8982F05
:101B3800B3F8AE2142F08002A3F8AE21704700222C
:101B4800BDE702F1A0010E4B03EB4101B1F8180DFE
:101B5800D3F8981F0144C3F8981FD3F89C1F01318C
:101B6800C3F89C1F50329F2AEBDD054B03F65862E1
:101B7800C3F86C2303F65A62C3F86423AAE700BFCC
:101B8800500300200000002010B4524BDA69196895
:101B98009B6812F0200F25D04E4C606A4E49B1F870
:101BA800A43FC0B211FA83F383F8A80F202323625D
:101BB8004A4830F8503C9BB201339BB220F8503C65
:101BC800B1F8A43F9BB201339BB2A1F8A43FB1F88E
:101BD800A43F9BB2FF2B58D0404B33F8503C9BB2EC
:101BE800FF2B57D012F0800F45D03C4B13F84B3CDD
:101BF800002B5CD0394A32F84A3C9BB232F84E1C72
:101C080089B25B1AFF339BB222F8483C334B33F856
:101C1800483C9BB27BB3314B33F84E2C13FA82F21B
:101C280012F8442CD2B22B498A6233F84E2C13FA9C
:101C380082F2002002F8440C80220A6233F84E2C0B
:101C480092B2013292B223F84E2C33F84E3C9BB23A
:101C5800FF2B38D0214A32F8483C9BB2013B9BB25B
:101C680022F8483C32F8483C9BB223B9194A136819
:101C780023F040031360174B08221A6204221A62E9
:101C880001221A625DF8044B70470B460021A3F845
:101C9800A41FA1E7114B002123F8501C0E48A0F8FF
:101CA800A41F23F84E1C012103F84C1C9AE70B4A89
:101CB80032F84A3C9BB232F84E1C89B25B1A9BB28E
:101CC80022F8483CA2E7054B23F84E0C03F84B0CCE
:101CD800C0E700BF0048004050030020481400201F
:101CE8004F4BD3F8BC3013B1012B30D070474C4B5D
:101CF80093ED307A4B4BD3ED957AB4EEE77AF1EE6B
:101D080010FA06DB464BD3F8C820C3F8C42083ED8D
:101D1800337A444BD3ED966A77EEA67AB4EEE77A37
:101D2800F1EE10FA7BDB1A46D3F8503203EB83014D
:101D380003EB4103D2F848221344394AD2F8C820A9
:101D480093426CDC364B0122C3F8BC207047344BFD
:101D580093ED307AD3ED347AB4EEE77AF1EE10FAF7
:101D680005DBD3F8C820C3F8D42083ED347A2D4B93
:101D7800D3ED957AB4EEE77AF1EE10FA06DB284B4C
:101D8800D3F8C820C3F8D82083ED377A254BD3ED94
:101D9800966A77EEE67AB4EEE77AF1EE10FA3ED874
:101DA8001F4BD3F8C420D3F8D8100A44D3F8E01056
:101DB80002EBD272521003EB8100C0F8E420D3ED9D
:101DC800347AC0ED9D7A4A1CC3F8E020D3F8041495
:101DD8000131C3F80414632A02DD0022C3F8E020AD
:101DE800114B93ED007AF4EEC77AF1EE10FA09DBA5
:101DF800A3F58163D3F8D420C3F80C2403F58163D9
:101E0800C3ED007A064B0022C3F8C420C3F8D820DB
:101E1800C3F8D4200021C3F8D010C3F8BC20704701
:101E2800481400200000002050180020264BD3F84A
:101E3800103413B1012B0AD07047234B0122C3F889
:101E48001024002283F81424A3F8162470471E4A8D
:101E5800B2F8163401339BB2A2F81634642B00D0C2
:101E6800704713460022A3F81624184BD3F86C22A7
:101E7800174BDB689A4203DD4B3A1449C1F86C22D0
:101E8800124AD2F86C22934203DD4B320F49C1F853
:101E98006C22A3F14B020D49D1F86C128A420DDC79
:101EA80003F14B02914209DC084AC2F86C32064B36
:101EB800012283F814240222C3F81024024B0122C1
:101EC80083F81824CCE700BF4814002050030020F2
:101ED80000000020264BD3F81C3413B1012B0AD084
:101EE8007047234B0122C3F81C24002283F82024C6
:101EF800A3F8222470471E4AB2F8223401339BB259
:101F0800A2F82234642B00D0704713460022A3F8AD
:101F18002224184BD3F8CC221B699A4203DDFA3AE3
:101F28001449C1F8CC22134AD2F8CC22934203DDDB
:101F3800FA321049C1F8CC22A3F1FA020D49D1F8BE
:101F4800CC128A420FDC03F1FA0291420BDC094AF7
:101F5800C2F8CC32064AC2F82434012382F820346D
:101F68000223C2F81C34024B012283F82824CBE751
:101F780048140020000000202D4B93F8D03203BBFA
:101F880010B42B4B93EDBD7A2A4B03F22C43D3EDBF
:101F9800007AF8EEE77A67EE877AF5EEC07AF1EE26
:101FA80010FA20D4234BBDEEC77A17EE102AC3F8D7
:101FB8002C241F4AD2F89022C3F830245DF8044B31
:101FC80070471B4B002283F8D022D3EDBD7A194A03
:101FD800FDEEE77A17EE901AC2F82C14D3F8903277
:101FE800C2F830347047B5EEC07AF1EE10FAD9D5A0
:101FF800A3F22C410020C1F834040D4AD2F89032E3
:10200800D1F83044234403EBD3735B10C2F8903209
:10201800094CB4F8AC3143F4806343F00103A4F8ED
:10202800AC3181F83804012382F8D032BAE700BF16
:102038000000002048140020500300201A4B33F8F9
:10204800503C9BB263B3184AB2F83A34174911FAB4
:1020580083F393F8A80FC0B2B2F83A3411FA83F3B5
:10206800002183F8A81FB2F83A349BB201339BB21F
:10207800A2F83A34B2F83A349BB2FF2B0DD00A4A90
:1020880032F8503C9BB2013B9BB222F8503CD2F84C
:102098003C340133C2F83C347047A2F83A14EEE7F6
:1020A8004FF0FF30704700BF481400205003002055
:1020B800174B33F84A2C13FA82F202F8440C33F81F
:1020C8004A2C92B2013292B223F84A2C33F8482CA7
:1020D80092B2013292B223F8482C33F84A3C9BB2B0
:1020E800FF2B0CD00A4B33F8483C9BB2FF2B05D989
:1020F800074B002223F8482C03F84B2C7047044B5D
:10210800002223F84A2C012203F84B2CEAE700BFEF
:102118004814002070B506460D46002404E0305DE2
:10212800FFF7C6FF0134E4B2AC42F8D370BD002318
:102138008B420CD202EB030C8C4509DB4FF0000CF0
:1021480000F803C001339BB2F2E75DF804FB704767
:1021580000B510F80CE000F803E04FF0000E00F8AE
:102168000CE001339BB28B42EFD202EB030C8C459F
:10217800EFDB4FF0000C00F803C0F2E70023C27851
:1021880062F31F63827862F31743427862F30F2386
:10219800027862F3070300EE103A704782B08DEDC3
:1021A800010A019BD9B203F47F420A4303F47F007A
:1021B800104303F07F43184302B0704708B5144B2F
:1021C8004FF0AF0C83F840C483F8410483F84224ED
:1021D800002309E003F1030E11F803C00C48704412
:1021E80080F840C40133DBB29342F3D3D31C0848D0
:1021F8000344FA2183F84014111DC9B200F5886020
:10220800FFF788FF034A136843F04003136008BDD3
:1022180048140020004800403E4BD3F88034012B7E
:102228001AD010B5022B2AD0ABB93A480022C0F810
:102238008424394BC3F8E02383F8242A012283F845
:10224800DC23364CD4F88C124631C4F88C1283F84F
:102258006422C0F8802410BD2E4AD2F88434013399
:10226800C2F8843440F2EE22934200D07047294BE2
:102278000022C3F884240222C3F880247047264B26
:1022880093F8243A002BE6D0224BD3F88424013269
:10229800C3F88424224BA3FB02135B0903EB8303DB
:1022A800D9008A42D7D11C4CD4F8E0331949C1F877
:1022B800883404EB8302D2F8E423C1F88C2400228A
:1022C800C1F89024D4EDF57A9FED167A67EE877AF7
:1022D800FDEEE77A17EE902AC1F8942401EB830308
:1022E800D3F89C34C1F89834102201F59161CB20C1
:1022F800FFF764FFD4F8E0330133C4F8E033B3F5F3
:10230800C87FA8D10022C4F8E023024B0322C3F8F7
:102318008024A0E74814002050030020000000207B
:10232800CDCCCCCC00007A443F4BD3F8DC3A012B1F
:102338001AD0022B2BD00BBB3B4B0022C3F8E02A50
:10234800C3F8E42A83F8E82A012183F8E91A374810
:10235800D0F86C222832C0F86C22C3F8EC2A83F833
:102368001814C3F8DC1A70472F4AD2F8E03A013340
:10237800C2F8E03A40F2EE22934200D070472A4B6E
:102388000022C3F8E02A0222C3F8DC2A7047264B51
:1023980093F8E83A002BF1D0234BD3F8E02A013226
:1023A800C3F8E02A224BA3FB02131B09322101FBCD
:1023B8001323002BE2D110B51B4CD4F8E42AC4F83F
:1023C800F02A04EB8203D3F89C34C4F8F43A0023CF
:1023D800C4F8F83A154BD3EDF57A9FED167A67EE07
:1023E800877AFDEEE77A17EE901AC4F8FC1A03EB29
:1023F8008203D3F8E433C4F8003B102204F52F61BC
:10240800CB20FFF7DBFED4F8E43A0133C4F8E43A12
:10241800B3F5C87F00D010BD0022C4F8E42A032217
:10242800C4F8DC2AF7E700BF481400205003002056
:102438001F85EB5100007A4410B5334B93F8043BE9
:102448002BB3012B3DD1304AD2F8083B0133C2F8F7
:10245800083B272B35DD11460023C2F8083B2B4AE1
:10246800D2F88C32C1F80C3BD2F8FC120B44C2F8FB
:102478008C32D2F80023934204DB244BD3F8F822A1
:10248800C3F88C220121224B83F8641228E01F4AEA
:10249800D2F8F832C2F88C321D4B012183F864124D
:1024A8000020C3F874036424C2F8C442B3F8AE2110
:1024B80022F00202A3F8AE21134BC3F8080B83F8ED
:1024C800041B10BD104A02EB8102D2F80C3B1148E4
:1024D80080FB03C0DB17C3EB2013C2F80C3B0131B0
:1024E8001129EFDD48220C49CB20FFF767FE0123B5
:1024F80006E0054A02EB83020021C2F80C1B0133F7
:10250800122BF6DDDDE700BF481400200000002094
:102518005003002067666666541F002008B51F4BED
:10252800D3F8582B0132C3F8582B1D4BA3FB0213C9
:102538005B09642101FB132303B108BD184B83FB1E
:102548000213D217C2EB63121449C1F85C2B0023A3
:10255800C1F8603BC1F8643BC1F8683BC1F86C3B0B
:10256800C1F8703B0F4BD3EDF57A9FED0F7A67EE0C
:10257800877AFDEEE77A17EE902AC1F8742BD3F824
:10258800B0314FF47A7202FB03F3C1F8783B202292
:1025980001F65C31CB20FFF711FECEE7481400208E
:1025A8001F85EB515003002000007A4408B5364BD4
:1025B800D3F87C3B002B5BD0012B64D1324AB2F8B4
:1025C800823B01339BB2A2F8823B304AA2FB031242
:1025D8005209642101FB12339BB2002B53D12C4AC0
:1025E800D2F89032D2F808135B1AC2F89032D2F8B7
:1025F8000C23934204DC264BD3F80423C3F890221F
:102608002149012381F8803B214BD3F89032C1F84E
:10261800843B0023C1F8883B01F69833D3ED007A58
:102628009FED1C7A67EE877AFDEEE77A17EE903A0F
:10263800C1F88C3B184BD3EDF57A67EE877AFDEE3F
:10264800E77A17EE902AC1F8902B03F57A63D3ED59
:10265800007A67EE877AFDEEE77A17EE903AC1F8CE
:10266800943B142201F68431CB20FFF7A7FD0AE042
:10267800074BD3F80423C3F89022034B012283F8B5
:10268800802BC3F87C2B08BD481400201F85EB5114
:102698000000002000007A4450030020394BD3F892
:1026A8009C3B13B1012B05D07047364B0122C3F870
:1026B8009C2B7047334AB2F8A03B01339BB2A2F877
:1026C800A03B314AA2FB03129209C82101FB123335
:1026D8009BB203B1704710B52A492C4CD4F8CC32C0
:1026E800C1F8A43B0023C1F8A83BC1F8AC3BC1F832
:1026F800B03BC1F8B43B264B03F57A62D2ED007AC1
:102708009FED247A67EE877AFDEEE77A17EE902A36
:10271800C1F8B82BD3EDF57A67EE877AFDEEE77A44
:1027280017EE903AC1F8BC3B1C2201F6A431CB202D
:10273800FFF744FDD4F81023D4F8CC321344C4F87E
:10274800CC32B3F5803F06DB4FF6FF71C4F8CC12EC
:102758005242C4F810230D4BD3F8CC2247F22F5322
:102768009A4209DC094B47F23052C3F8CC22D3F81D
:1027780010235242C3F81023024B012283F8282465
:1027880010BD00BF481400201F85EB510000002039
:102798005003002000007A4438B5664BD3F8C03B9C
:1027A800002B00F0B480012B40F0C080614AB2F8E1
:1027B800C43B01339BB2A2F8C43B5F49D1EDBD7A5B
:1027C80002F6C83191ED007A37EE877A81ED007A0A
:1027D80002F6CC32D2ED006AF8EE666A9FED576ACF
:1027E80067EE867AF4EEE76AF1EE10FA07D5FCEEAA
:1027F800E77AA2F6CC3217EE901AC2F8CC1B272B38
:1028080040F294804B4A0023A2F8C43B02F6C83336
:10281800DFED4B6AC7EE267AC3ED007A464B93ED9F
:10282800C77AD3EDA47AF8EEE77A77EEC77AFDEEA9
:10283800E77AC3EDA47A012182F8801BF8EEE77AE3
:1028480093EDC57AF4EEC77AF1EE10FA06D993ED56
:10285800C67AF4EEC77AF1EE10FA0ADD354B00229B
:10286800C3F8CC2B344BD3EDC67AFDEEE77AC3ED33
:10287800A47A304B93F83834002B58D12D492E4880
:10288800D0F89032C1F8D03B2E4AD2EDF57A9FEDC0
:102898002B7A67EE877AFDEEE77A17EE903AC1F861
:1028A800D43B01F6C834D4ED007A67EE877AFDEEA2
:1028B800E77A17EE905AC1F8D85BD0EDBD6A66EE9C
:1028C800876AD0EDB57AF8EEE77A67EEA67AFDEE7C
:1028D800E77A17EE900AC1F8DC0BC1F8E03B002359
:1028E800C1F8E43B02F57A62D2ED007A67EE877AA6
:1028F800FDEEE77A17EE903AC1F8E83B1C2201F5A5
:102908003D61CB20FFF75AFC002323600EE0094A03
:102918000023A2F8C43B0121C2F8C01B064A4CF2AE
:102928005031C2F89012074A82F8543238BDFFF786
:1029380023FBA3E7481400200000002000007A448D
:1029480000002042500300204D4BD3F8C03B13B188
:10295800012B0BD070474A4A0023A2F8EC3B012117
:10296800C2F8C01B474A82F854327047444BB3F848
:10297800EC2B013292B2A3F8EC2B434991EDBD6ADE
:1029880003F53F6191ED007A36EE077A81ED007A22
:102998003C49D1EDF56A03F6F433D3ED007A76EECF
:1029A800A77AC3ED007A272A68D910B5A3F6F433BD
:1029B8000022A3F8EC2B9FED355AC7EE055A03F514
:1029C8003F62C2ED005A87EE857A03F6F43383ED51
:1029D800007A2D4AD1F86C32D2F850020344C1F87B
:1029E8006C32D2F8482293423FDC274BD3F84C2272
:1029F800C1F86C22224C012384F81834214BD3F8F7
:102A08006C32C4F8F83BDFED227A27EE277ABDEE68
:102A1800C77A17EE103AC4F8FC3B65EEA75AFDEEEC
:102A2800E55A15EE903AC4F8003CBDEEC66A16EEBB
:102A3800103AC4F8043CDFED177A66EEA76AFDEE9B
:102A4800E66A16EE903AC4F8083C0023C4F80C3C39
:102A5800C4F8103C1C2204F6F831CB20FFF7AEFB7B
:102A680004F53F640023236010BD0749D1F84C12D8
:102A78008B42BFDB034BC3F86C22BBE7704700BF38
:102A880048140020500300200000002000002042CD
:102A98000000C84200007A442A4AB2F8143C0133C4
:102AA8009BB2A2F8143C2849D1EDBD7A02F618422F
:102AB80092ED007A77EE877AC2ED007A092B00D87A
:102AC800704710B5A2F618440023A4F8143CD4F8B3
:102AD8001C2C0132C4F81C2CF2EE046A87EEA67A8C
:102AE80004F6184181ED007AC4F8202CDFED177A3E
:102AF80027EE277ABDEEC77A17EE102AC4F8242CE1
:102B0800134AD2F86C22A2F52F42C83AC4F8282CEE
:102B1800C4F82C3CC4F8303CC4F8343CC4F8383C05
:102B2800C4F83C3C202204F54261CB20FFF746FB69
:102B3800D4F81C2C41F288339A4202D90022C4F8F6
:102B48001C2C10BD481400200000002000007A440E
:102B58005003002010B5674BD3F8404C002C00F010
:102B68008E80012C40F0A580624BD3F84C1C624A41
:102B7800D2EDF47AFDEEE77A17EE900A0144C3F835
:102B88004C1CD3F8501CD2EDF57A9FED5C7A67EEB9
:102B9800877AFDEEE77A17EE900A0144C3F8501CD5
:102BA800D3F8541CD2EDF67A67EE877AFDEEE77A11
:102BB80017EE900A0144C3F8541CD3F8581C02F6C7
:102BC8008420D0ED007A9FED4E7A67EE877AFDEE8D
:102BD800E77A17EE900A0144C3F8581CD3F85C1C36
:102BE80002F68822D2ED007A67EE877AFDEEE77A60
:102BF80017EE902A1144C3F85C1CD3F8602C03F636
:102C08006C41D1ED007AFDEEE77A17EE901A0A448E
:102C1800C3F8602CD3F8642C03F54761D1ED007A32
:102C2800B2EE047A67EE877AFDEEE77A17EE901A2D
:102C38000A44C3F8642CD3F8442C0132C3F8442C5A
:102C4800272A36DD19460023C1F8443C2D4AD2F81C
:102C58008C32C1F8483CD2F8FC120B44C2F88C32D2
:102C6800D2F80023934204DB264BD3F8F822C3F8AA
:102C78008C22214B012283F86422214628E0214A34
:102C8800D2F8F832C2F88C321B4B012183F8641257
:102C98000020C3F874036424C2F8C442B3F8AE2118
:102CA80022F00202A3F8AE21124BC3F8440CC3F879
:102CB800401C10BD0F4A02EB8102D2F8483C124872
:102CC80080FB03C0DB17C3EB2013C2F8483C01317B
:102CD8000729EFDD20220D49CB20FFF76FFA06E028
:102CE800044B03EB84030022C3F8482C0134072C5F
:102CF800F6DDDEE7481400205003002000007A4487
:102D08000024744900000020676666669020002051
:102D180038B5314BD3F8742C0132C3F8742C03F650
:102D28007841D1ED007A2D4890EDF57A77EE877AE3
:102D3800C1ED007A2A49D1F88852A5F5004007EE7E
:102D4800900A03F67C40F8EEE77A90ED007A77EE89
:102D5800877AC0ED007A91EDBD7A03F54863D3ED2B
:102D6800007A77EE877AC3ED007A322A00D038BD30
:102D7800A0F67C440023C4F8743CD4F8842C511C7D
:102D8800C4F8841CC4F8882C154AD2F88C22C4F8DC
:102D98008C2CC4F8905CC4F8943CC4F8983C142279
:102DA80004F68841CB20FFF709FAD4F8842C4FF6B3
:102DB800E8539A420BD0084B03F67C4100220A6084
:102DC80003F678410A6003F548631A60CFE70022EA
:102DD800C4F8842CEFE700BF4814002050030020FB
:102DE8000000002070B5C24BD3F89C4C042C66D868
:102DF800DFE814F0050066008F0049018401BD4D2D
:102E080005F13000FDF70FFA05F5A870FDF70BFA8C
:102E18000120C5F82003B64B0022C3F8A02CB64EFB
:102E2800B6F8AE1121F00101A6F8AE11D5F8481296
:102E3800C3F8A41CC6F86C1283F81804D5F84462C9
:102E4800C5F8CC6283F82804C3F8A82CC3F8AC2CC6
:102E5800C3F8B02CC3F8B42CC3F8B82C0A20C3F8B4
:102E6800BC0CC3F8BC20C3F8E020C3F80424C3F8A2
:102E7800C4200020C3F8CC00C3F8D820C3F8DC0075
:102E8800C3F8D420C3F8D000C3F80C2403F5816339
:102E980018600BE0964B03EB8402C2F8C01C03F6E3
:102EA800EC4303EB840300221A6001340A2CF1DDA1
:102EB8008F4B002283F8182D0122C3F89C2C70BD7B
:102EC8008D4BB3F8AE3113F0010FF8D08A4823F0D8
:102ED8000103A0F8AE31864AD2F8B43C8549D1F84E
:102EE800F44202F6EC4101EB83010C6002EB830132
:102EF800D0F86C02C1F8C00C0133C2F8B43C0B2BFB
:102F0800DDD113460022C3F8B42C0222C3F89C2C4E
:102F1800D5E7794BB3F8AE3113F0010FCFD023F0DA
:102F28000103754AA2F8AE31714AD2F8BC0C02EB23
:102F38008003D3F8C03CD2F8B81C02EB8104D4F863
:102F4800C04C234403EBD3735B10C2F8C83002F6BD
:102F5800EC4303EB8101D1ED007A03EB800393EDA1
:102F6800007A77EEC77AC2ED307AF5EEC07AF1EEE4
:102F780010FA44D45E4CD4F8B43C5E4AD2F8F41249
:102F880004F6EC4202EB8302116004EB83035A4A15
:102F9800D2F86C22C3F8C02CFEF7A2FED4F8B82CE5
:102FA8000132C4F8B82CD4F8BC3C0133C4F8BC3C9A
:102FB800D4F8B41C0131C4F8B41C0B2924D00B2A52
:102FC80026D00B2B29D04A494A4AD1F8A43CD2F83A
:102FD80050020344C1F8A43CD2F84C22934204DBCB
:102FE800C1F8A42C0322C1F89C2C414BD3F8A41C93
:102FF800414AC2F86C12012283F818245FE713468D
:103008000022C3F8C020B5E70020C4F8B40CD6E706
:10301800374A0021C2F8B81CD3E7354B0022C3F861
:10302800BC2CD0E70133221A9A4224DD304A02EB45
:10303800830191ED9D7A591E02EB8102D2ED9D7AB2
:10304800B4EEE77AF1EE10FAECDDFDEEE77A284A05
:1030580002EB8101D1F8E45081ED9D7A02EB830205
:10306800D2F8E460C1F8E460F8EEE77AC2ED9D7A40
:10307800C2F8E450D6E701301D4BD3F8044484422B
:1030880003DD0123CFE70120F6E70422C3F89C2CD7
:10309800012C1DDD1A46D3F8E430D2F8E82093421B
:1030A80012DA154AC2F86C32134AC2F86C32104A66
:1030B800C2F8EC3A012382F8183482F8183D0C4B18
:1030C8000022C3F8E020FAE60B49C1F86C22EBE7CE
:1030D800012CF4D1064BD3F8E4200749C1F86C223F
:1030E800C3F8EC2A012283F8182483F8182DE6E7A0
:1030F800481400200000002050030020444AD2F861
:10310800A83C0133C2F8A83CC72B7FF6D8AE1346BB
:103118000022C3F8A82CD3F8AC3C012B21D0022BF9
:1031280045D0002B7FF4CBAE394CD4F8E02004EB2B
:103138008203D3F8E430013BC4F81C3D0023C4F8F3
:10314800203DC4F8242DC4F8283DC4F82C3D142291
:1031580004F61C51CB20FFF731F80123C4F8AC3C2E
:10316800ADE62B4CD4F8E03004EB8302D2F8E4103F
:10317800C4F81C1DD2ED9D7A9FED267A67EE877AFA
:10318800FDEEE77A17EE902AC4F8202DC4F8243D06
:103198000023C4F8283DC4F82C3D142204F61C5121
:1031A800CB20FFF70BF80223C4F8AC3C87E6184C99
:1031B800D4F8E02004EB8203D3F8E4300133C4F8F8
:1031C8001C3D0023C4F8203DC4F8242DC4F8283D34
:1031D800C4F82C3D142204F61C51CB20FEF7EEFF58
:1031E800D4F8E0300133C4F8E030D4F80424934232
:1031F80001DA632B06DD064B0022C3F8E020052226
:10320800C3F89C2C024B0022C3F8AC2C57E600BF35
:103218004814002000007A4470B5CA4BD3F8303DFA
:10322800042B50D8DFE813F0050050008500390161
:103238009A01C54C0323C4F8C032C44901F62823B7
:1032480000201860C1F8C003C1F8C4030022C1F807
:1032580074236423C4F8C432B1F8AE3123F00203F6
:10326800A1F8AE31D4F8F852B64BC3F8345DC4F8BF
:103278008C52012581F86452C3F8382DC3F83C2DCF
:103288000426C4F82463C3F8402D03F64C54206088
:10329800C3F8442D6060C3F8482DA060C3F8582DCA
:1032A800C3F85C2D03F556642060C3F8642D4FF60F
:1032B800E850C1F8D80181F8DC51C3F8682D83F8CB
:1032C8006C2DC3F8305D70BDA04BB3F8AE3113F070
:1032D800020FF8D09D4C23F00203A4F8AE31994AAE
:1032E800D2F8383D02F5576101EB8301D4F8D403D5
:1032F800086002EB83019448D0F88C52C1F8845DD1
:10330800D2F8341DD0F8FC522944C2F8341DC0F854
:103318008C12012184F864120B44C2F8383D052B45
:10332800D1D113460022C3F8382D0222C3F8302D1C
:10333800C9E7864BB3F8AE3113F0020FC3D023F0C0
:103348000203824AA2F8AE317F4BD3F824237D4B87
:1033580003EB8201D1F8840DD3F83C1D03EB810403
:10336800D4F8844D204400EBD0756D10C3F85C5D33
:1033780003F5576404EB8106D6ED007A04EB82046A
:1033880094ED007A77EEC77A03F55663C3ED007AB9
:10339800F5EEC07AF1EE10FA6DD46D4BD3ED007AEC
:1033A8009FED6C7AF4EEC77AF1EE10FA22DD42F264
:1033B800117398421EDD634BD3F8583D03F57A73B9
:1033C8009D420EDD5F4B03F64C5044688460D3F891
:1033D800444DC3F8484D04684460D3F8400DC3F821
:1033E800440D584B03F64C50C0ED007AC3F8405DCD
:1033F800C3F8585D5348D0F8383D00F5576404EBDE
:103408008304524DD5F8D453256000EB83054E4C08
:10341800D4F88C62C5F8846D0131C0F83C1D0132C6
:10342800C4F824230133C0F8383D052B26D00529DC
:1034380029D0052A2CD04349434AD1F8343DD2F843
:10344800FC020344C1F8343DD2F80023934207DB61
:103458003D4AD2F8F822C1F8342D0322C1F8302DA4
:10346800384BD3F8342D384BC3F88C22374B012214
:1034780083F8642227E700241C608EE703460020B7
:10348800C3F8380DD3E72F4B0021C3F83C1DD0E714
:103498002D4B0022C3F82423CDE72F4B93ED007A60
:1034A800D3ED017AB4EEE77AF1EE10FA0CDDD3ED44
:1034B800026AB4EEE67AF1EE10FA05DDA3F64C5393
:1034C800D3F8402DC3F8342DB4EEE77AF1EE10FAB4
:1034D8000DD5214BD3ED026AF4EEE67AF1EE10FA3F
:1034E80005DDA3F64C53D3F8442DC3F8342D1A4BFD
:1034F800D3ED026AF4EEE67AF1EE10FA0AD5B4EEEC
:10350800E67AF1EE10FA05D5A3F64C53D3F8482D18
:10351800C3F8342D0C4A0B4BD3F8341DC2F88C1267
:103528000A49012081F8640283F86C0D0020C3F871
:10353800640D0424C3F8304DC1F874030A23C2F89B
:10354800C432C0E6481400200000002050030020C8
:10355800A82100200000484294210020424AD2F8C5
:10356800983D0133C2F8983DC72B7FF6ACAE1346A1
:103578000022C3F8982DD3F8683D012B21D0022BE7
:1035880049D0002B7FF49FAE374CD4F8642D04EB60
:103598008203D3F8403D013BC4F89C3D0023C4F8A6
:1035A800A03DC4F8A42DC4F8A83DC4F8AC3D14222D
:1035B80004F69C51CB20FEF701FE0123C4F8683DB8
:1035C80081E6294CD4F8643D04EB8302D2F8402DFF
:1035D800C4F89C2D04F64C5202EB8302D2ED007A1B
:1035E8009FED227A67EE877AFDEEE77A17EE902A4A
:1035F800C4F8A02DC4F8A43D0023C4F8A83DC4F81D
:10360800AC3D142204F69C51CB20FEF7D7FD0223D3
:10361800C4F8683D57E6144CD4F8642D04EB8203D3
:10362800D3F8403D0133C4F89C3D0023C4F8A03DC5
:10363800C4F8A42DC4F8A83DC4F8AC3D142204F67F
:103648009C51CB20FEF7BAFDD4F8643D0133C4F891
:10365800643D012B02DD0522C4F8302D024B002207
:10366800C3F8682D2FE600BF4814002000007A44F4
:103678002DE9F843C04BD3F8B03D0A2B77D8DFE8E3
:1036880013F00B0005011201380168018B01CA0112
:103698000302130255026902B74C0025C4F8B45D51
:1036A800FDF7DEF8B54EB64FFB68C6F86C324FF042
:1036B800010884F8188484F8B88DA6F8AC5107F18D
:1036C800300907F16000FCF7AEFD4846FCF7ABFD9A
:1036D80007F5A870FCF7A7FD07F1C000FCF7A3FDEC
:1036E80007F19000FCF79FFD07F5C070FCF79BFD04
:1036F800C6F85852C6F850524FF6FF73C7F89032C2
:10370800C4F8BC5DC4F8C05D84F8808B84F8145498
:1037180084F8205484F8C45D86F85C5286F85452C4
:1037280086F84C5284F86C5DB6F8AE3123F080020E
:10373800A6F8AE2123F08102A6F8AE2123F0830378
:10374800A6F8AE31C4F89C5CC4F8C85D4FF6E853DF
:10375800C6F8D831D7F86432C6F8D43186F8DC8197
:103768007B69C4F8CC3D84F8B88DC4F8B08D824A22
:10377800D2F8B43D0133C2F8B43D92F8B01DC2F896
:10378800E01D7E4A92F85C2222B141F480717A4AA7
:10379800C2F8E01D784A92F8C42D32B97649D1F8BA
:1037A800E02D42F40072C1F8E02D744A92F84C22E0
:1037B80032B17149D1F8E02D42F48062C1F8E02DB0
:1037C800704AD2ED007A9FED707AF4EEC77AF1EE86
:1037D80010FA0DDD9FED6D7AF4EEC77AF1EE10FA6E
:1037E80006D56549D1F8E02D42F40062C1F8E02D14
:1037F800634AD2F88C52A5F2E9314FF62D02914274
:1038080006D85D49D1F8E02D42F48052C1F8E02D88
:103818005B4AD2F89042A4F2D1714FF245429142EC
:1038280006D85549D1F8E02D42F40052C1F8E02DF0
:10383800524AD2F8B001A0F2E9314FF62D02914276
:1038480006D84D49D1F8E02D42F48042C1F8E02D68
:103858004A4A92F8542232B14749D1F8E02D42F44D
:103868000042C1F8E02D464AD2F8402212F0100F6B
:1038780000F0D281464AA2FB03125209642101FBDF
:103888001232002A00F07F81BDE8F8833B4B4FF6E7
:10389800FF72C3F8B021384B012283F8D02D0222E1
:1038A800C3F8B02D63E73B4B93ED007A344BD3ED6F
:1038B800977AB4EEE77AF1EE10FA7FF758AF2E4B0D
:1038C800D3F8B42D42F20F739A427FF650AF2B4BC8
:1038D8000022C3F8B0212849012281F8D02DB3F87D
:1038E800AC2142F00802A3F8AC210323C1F8B03D93
:1038F8003DE7FFF70DFA204BD3F8C83D022B11D056
:10390800052B0FD01C4B93F8183D93B11A4B00228E
:1039180083F8182DC3F89C2CC3F8C02D0522C3F8D2
:10392800B02D24E7144B0522C3F8C82DFFF75AFA27
:10393800E8E7114BD3F89C3C042B7FF418AF0E4BEF
:103948000022C3F89C2CC3F8C82D0322C3F8B02D5D
:103958000DE7094AD2F8C03D0133C2F8C03DB3F5BE
:10396800FA7FFFF404AF13460022C3F8C02D0522E6
:10397800C3F8B02DFBE600BF481400205003002018
:1039880000000020F012002000007A4400806D45FD
:103998001F85EB511C220020FFF724FAAD4B93F84A
:1039A800183D7BB9AB4BD3F89C3C042B7FF4DFAEBE
:1039B800A84B0022C3F89C2CC3F8C82D0322C3F8D7
:1039C800B02DD4E6A4480123C0F82033A14C04F656
:1039D800D8520023136004F6DC5213600026C4F8A2
:1039E800A06C9E4DB5F8AE3123F00103A5F8AE31B9
:1039F800D5F86C32C4F8EC3A3030FCF714FCB5F862
:103A0800AC3143F00103A5F8AC31C4F8C06D06230E
:103A1800C4F8B03DABE68F4AD2F8C03D0133C2F8D6
:103A2800C03DB3F5FA6FFFF4A2AE15460023C2F805
:103A3800C03D89480122C0F8202305F6D85100224C
:103A48000A6005F6DC510A60C5F8A03C834CB4F85E
:103A5800AE3123F00103A4F8AE3100F5A870FCF7ED
:103A6800E2FBB4F8AC3123F00102A4F8AC2123F056
:103A780005039BB2A4F8AC3143F04003A4F8AC3181
:103A88000723C5F8B03D72E6FEF7D0F9714B93F8FD
:103A98001434002B3FF46BAE6E4B0822C3F8B02DE4
:103AA8000022C3F8C02D62E66A4AD2F8C03D01334D
:103AB800C2F8C03D41F28732934234D8654B93F83F
:103AC8006C3D002B3FF453AE62480024C0F8C04D53
:103AD800614A0323C2F8C032604B03F6282500214F
:103AE8002960C3F8C013C3F8C413C3F874430A2188
:103AF800C2F8C412B3F8AE1121F00201A3F8AE1156
:103B0800D2F86422C3F8D821C3F8D421012283F85B
:103B1800DC21B3F8AC2142F00202A3F8AC2109235E
:103B2800C0F8B03D23E6FFF777FBC7E7FEF7D2F909
:103B3800484B93F82034002B3FF419AE474AB2F8AB
:103B4800AC3143F48073A2F8AC31424B0A22C3F87B
:103B5800B02D0CE63F4BD3F8B42D414B9A427FF67B
:103B680006AE3E4B93F85C32002B3FF400AE3B4A66
:103B7800B2F8AC3143F08003A2F8AC31354B0B22DC
:103B8800C3F8B02DF3E53349C1F8E43D324BD3F81F
:103B9800883243EA0543C1F8E83D0023C1F8EC3D0B
:103BA8009FED307A67EE877AFDEEE77A17EE903A66
:103BB800C1F8F03D01F69833D3ED007A67EE877AC5
:103BC800FDEEE77A17EE903AC1F8F43D01F6D453CA
:103BD800D3ED007A67EE877AFDEEE77A17EE903A32
:103BE800C1F8F83D1D4BD3ED727A67EE877AFDEE8A
:103BF800E77A17EE902AC1F8FC2DC1F8004EC1F8FB
:103C0800040ED3F86C32C1F8083E282201F6E451BC
:103C1800CB20FEF7D3FA37E60E4BD3F8BC2D013292
:103C2800C3F8BC2D104BA3FB02139B094FF47A7108
:103C380001FB1323002B7FF427AE064BD3F80C3E71
:103C4800012B7FF421AE04220849D220FEF7B6FAF0
:103C58001AE600BF4814002000000020500300208E
:103C6800EF49020000007A44D34D62102822002058
:103C780070B504460D46444B002283F8102E03E02D
:103C88000133414A82F8103E3F4B93F8103E298891
:103C98008B4208D2E25CAF2AF2D13B4A82F8113E4D
:103CA800012382F8123E384B93F8123E13B3364B79
:103CB80093F8112ED31C8B4262DAA3189B783248F2
:103CC800A0F8143E402B1CD8101D1844814259DB23
:103CD800D0182044C078FA2823D1D018C0B20330B5
:103CE800C0B2294B83F8160E511C665C002183F87C
:103CF800101E31E00A462046FEF719FA00202880F7
:103D08003FE001322046FEF712FA2B881E4A92F84D
:103D1800112E9B1A013B2B8029462046FFF7A8FF4E
:103D28002FE001322046FEF702FA2B88164A92F855
:103D3800112E9B1A013B2B8029462046FFF798FF3E
:103D48001FE0D11814F801E00F4901EB030C8CF8BF
:103D580018EE013381F8103E811A0B4B93F8103E90
:103D68009942EEDA421C29882046FEF7E0F92B88B2
:103D7800054A92F8162E9B1A013B2B80304600E02C
:103D8800002070BD0020FCE74814002038B5044628
:103D98001546C81CFEF7F2F985ED000AFEF7FEF994
:103DA8000449C1F8180F042201F618712046FEF7DD
:103DB80005FA38BD481400202DE9F04107460C46A5
:103DC80016461D46DDF81880C81CFEF7D7F986EDA3
:103DD800000AE01DFEF7D2F985ED000A04F10B0098
:103DE800FEF7CCF988ED000A96ED000AFEF7D6F941
:103DF8000B4CC4F81C0F95ED000AFEF7CFF9C4F878
:103E0800200F98ED000AFEF7C9F9C4F8240F0C2218
:103E180004F61C713846FEF7D1F9BDE8F08100BF01
:103E280048140020F8B5054617461E4691ED000ACD
:103E3800FEF7B4F90A4CC4F8280F97ED000AFEF70C
:103E4800ADF9C4F82C0F96ED000AFEF7A7F9C4F8EF
:103E5800300F0C2204F628712846FEF7AFF9F8BD9A
:103E6800481400202DE9F04107460C46104DC5F8CE
:103E7800341F104E06EB810898ED0B0AFEF78EF9F9
:103E8800C5F8380F203406EB840696ED0B0AFEF7CA
:103E980085F9C5F83C0FD8F82C31C5F8403F1022F9
:103EA80005F634713846FEF789F9BDE8F08100BFA0
:103EB800481400205003002010B50C680949C1F8C7
:103EC800444F1268C1F8482F1B68C1F84C3F029B49
:103ED8001B68C1F8503F102201F64471FEF76EF9D5
:103EE80010BD00BF4814002010B40B0A9B0003F05B
:103EF8000C033030C45801F01F014FF01F0C0CFAAE
:103F080001FC24EA0C0CC2F384628A404CEA0202E7
:103F1800C2505DF8044B704710B44B0E9B0003F081
:103F280004031430C458C1F304514FF0070C0CFAC1
:103F380001FC24EA0C0C8A404CEA0202C2505DF8EB
:103F4800044B7047704770477047704708B5836ADD
:103F58005A6D12F0500F2ED15A6D42F400725A6504
:103F68001A68116811F0080F14D0D16811F4406F65
:103F780028D1D26812F4005F24D15A6D22F48072DD
:103F88005A655A6D12F4805F1CD15A6D42F00102D5
:103F98005A6517E0D26812F0020F13D15A6D22F455
:103FA80080725A655A6D12F4805F0BD15A6D42F0D7
:103FB80001025A6506E05A6D12F0100F02D1DB6C4F
:103FC8005B6B984708BD836A5A6D42F040025A6598
:103FD8009A6D42F004029A65704710B4D0F8B44064
:103FE80001F07F0C0B0B23EA0C0303F010039A403B
:103FF80001F07F1124EA01042243C0F8B4205DF8DF
:10400800044B70470368D3F8B400084000F07F10F1
:10401800090B01F01001C840704790F85030012B8F
:1040280026D070B50446012380F8503000688368B4
:1040380013F0040300D00123856815F0080500D0AB
:104048000125866816F0010F01D003B965B1636DCB
:1040580043F020036365A36D43F00103A3650120CA
:10406800002384F8503070BDFFF7B7FF0020F7E752
:104078000220704790F85020012A00F08A8010B47E
:104088009BB00346012280F850200068424A9042C3
:104098003FD000220192019A002A3ED0926812F085
:1040A800040200D00122806810F0040F61D1002AB8
:1040B8005FD10A68002A39D0384CA06893F830C01C
:1040C8004A6842EA4C3220F460400243A260324A15
:1040D800906810F0010000D00120314A926812F077
:1040E800010200D0012202432E48806810F001002E
:1040F80000D00120024348D1284CA0680A6889688A
:104108000A4320F4716121F00F010A43A2600020E4
:1041180034E002F580720192BDE75A6D42F0200248
:104128005A65002283F8502001202AE01B498A683A
:1041380022F460428A60184A916811F0010100D0A7
:104148000121174A926812F0010200D001220A43A5
:104158001449896811F0010100D001210A4316D1E0
:104168000E498A6822F4716222F00F028A600020E8
:1041780004E05A6D42F020025A650120002283F8BB
:1041880050201BB05DF8044B70470020F6E7002074
:10419800F4E70220704700BF0000045000030450F9
:1041A8000001045000020450002807DB00F01F0241
:1041B800400901239340024A42F82030704700BF6B
:1041C80000E100E000280CDB00F01F024009012399
:1041D80093402030034A42F82030BFF34F8FBFF39B
:1041E8006F8F704700E100E0002808DB0901C9B2C1
:1041F80000F1604000F5614080F80013704700F05E
:104208000F000901C9B2014B1954704714ED00E0C1
:1042180000B500F00700C0F1070CBCF1040F28BF7F
:104228004FF0040C031D062B0FD9C31E4FF0FF3EA1
:104238000EFA0CF021EA000199400EFA03FE22EA78
:104248000E0241EA02005DF804FB0023EEE7084A8B
:10425800D36823F4E0631B041B0C000200F4E06045
:10426800034343F0BF6343F40033D360704700BF98
:1042780000ED00E008B5FFF7A5FF08BD4279012A67
:104288002CD010B40346012242710220187118681C
:10429800046801F0100C02FA0CF22243026089B99A
:1042A80019680A6802F03C02042A06D001221A7131
:1042B800002058715DF8044B70474A6842F00102CB
:1042C8004A60F3E719680A6802F47012B2F5802FA1
:1042D800ECD14A6842F002024A60E7E702207047E0
:1042E8007047836A01221A71704770477047704798
:1042F800836A1A6942F004021A6101221A7170472E
:104308007047836A01221A71704770477047704777
:10431800836A1A6942F004021A6101221A7170470D
:1043280000286FD010B403460168374A914247D835
:10433800364A0A441420B2FBF0F292005A64344A16
:104348001A64022283F8252008686FF30E109A6811
:10435800DC6822431C6922435C6922439C6922432E
:10436800DC6922431C6A224302430A609A68B2F558
:10437800804F1BD0196C264A91422BD0244AD2F880
:10438800A814586C00F01C0C0F2000FA0CF021EA5D
:104398000001C2F8A814D2F8A81458685C6C04F09C
:1043A8001C0C00FA0CF00143C2F8A8140020D863D2
:1043B800012283F8252083F824005DF8044B704718
:1043C800144A0A441420B2FBF0F292005A64124ACA
:1043D8001A64B6E7D2F8A810586C00F01C0C0F202D
:1043E80000FA0CF021EA0001C2F8A810D2F8A810CF
:1043F80058685C6C04F01C0C00FA0CF00143C2F81D
:10440800A810D3E70120704707040240F8FFFDBF5A
:1044180000000240F8FBFDBF0004024038B5036C01
:10442800196804682568436C03F01C0304229A4049
:104438000A4215D015F0040F12D0236813F0200F8C
:1044480003D1236823F004032360436C03F01C02A8
:10445800016C042393404B60036B03B1984738BD4C
:1044680002229A400A421CD015F0020F19D0236884
:1044780013F0200F06D1236823F00A0323600123D9
:1044880080F82530436C03F01C02016C0223934032
:104498004B60002380F82430C36A002BDFD0984794
:1044A800DDE7082202FA03F30B42D8D015F0080F13
:1044B800D5D0236823F00E032360436C03F01C035C
:1044C800016C012202FA03F34B60C26380F82520D5
:1044D800002380F82430436B002BC0D09847BEE7F8
:1044E80030B4446C04F01C0C012404FA0CF4056C80
:1044F8006C60046863608368102B05D0036899605A
:104508000368DA6030BC704703689A600368D96052
:10451800F8E738B5044690F82400012832D0012085
:1045280084F8240094F82500C0B2012804D00023A0
:1045380084F82430022038BD022084F825000020A9
:10454800E0632568286820F0010028602046FFF70E
:10455800C7FF236B5BB12268136843F00E03136037
:104568002268136843F0010313600020E3E7226820
:10457800136823F0040313602268136843F00A03E6
:104588001360EDE70220D6E770B504460D461146E4
:10459800049A4079012866D00120607102202071B8
:1045A800002D32D1A068314EC662A068304E066335
:1045B800A068304E46632668306840F4805030600A
:1045C800042A1CD0082A1DD0002A3AD122680832B1
:1045D800002D3AD12668306840F400503060A06859
:1045E800FFF797FF00236371002837D1226811680D
:1045F80005F010050123AB400B43136070BD226822
:104608000C32E5E722681032E2E7E0681A4EC6622B
:10461800E0681A4E0663E068194E466326683068FB
:1046280040F080503060042A05D0082A06D052B9DC
:1046380022681432CCE722681832C9E722681C3293
:10464800C6E72A46C4E70022C2E72668306840F079
:1046580000503060E068FFF75CFFC3E7236943F070
:1046680004032361CAE70220C8E700BFEB42000841
:10467800F5420008F94200080B43000815430008FA
:1046880019430008F0B583B000233FE0C56A25EA66
:104698000C05C4F3C0049C402C43C46262E00624A9
:1046A80000E00024B4403C430235684E46F82540FB
:1046B800674C2568D44325EA02064F6817F4803F03
:1046C80001D042EA0506624D2E606D6804EA0506CF
:1046D8004F6817F4003F01D042EA05065C4D6E6052
:1046E800AD6804EA05064F6817F4801F01D042EA56
:1046F8000506574DAE60ED682C404E6816F4001F55
:1047080001D042EA0504524AD46001330A6832FAF9
:1047180003F400F098804FF0010C0CFA03FC1CEA3B
:104728000202F2D04C68651E012D03D9112C01D06C
:10473800122C12D185685E000324B44025EA0405D2
:10474800CC68B4402C438460456825EA0C054C6865
:10475800C4F300149C402C4344604C6804F00305E7
:10476800032D93D0C5684FEA430E032404FA0EF4D0
:104778006FEA040C25EA04058C6804FA0EF42C434D
:10478800C4604C68022C01D0122C0FD1DD0808350A
:1047980050F8257003F00706B6000F24B44027EA46
:1047A80004070C69B4403C4340F8254004680CEA0F
:1047B800040C4C6804F0030404FA0EF444EA0C04F4
:1047C80004604C6814F0805F9FD0224C256E45F041
:1047D80001052566246E04F001040194019C9D08DE
:1047E800AE1C1A4C54F8267003F00306B6000F24CA
:1047F800B44027EA0407B0F1904F3FF452AF164C8B
:10480800A04216D004F58064A04214D004F5806458
:10481800A04212D004F58064A04210D004F5806450
:10482800A0420ED004F58064A0423FF438AF0724BC
:1048380038E7012436E7022434E7032432E7042466
:1048480030E705242EE703B0F0BD00BF00000140AB
:1048580000040140001002400004004810B58CB06C
:10486800044600230793089309930A930B9303685C
:104878007D4A934208D07D4A934255D07C4A934260
:1048880000F0A2800CB010BD7A4AD2F8543F013330
:10489800C2F8543F012B3AD0774BDA6C42F004024D
:1048A800DA64DB6C03F004030293029B0223079390
:1048B8000B23089307A97148FFF7E4FE6D48704B76
:1048C800C0F8583F0023C0F85C3FC0F8603FC0F80C
:1048D800643F8023C0F8683F4FF48073C0F86C3F92
:1048E8004FF48063C0F8703F2023C0F8743F4FF442
:1048F8000053C0F8783F00F65870FFF711FD88B9EB
:104908005C4B03F65872E264C3F8804FBAE75A4B1F
:10491800DA6C42F40052DA64DB6C03F4005301935E
:10492800019BB9E7FCF72AFE524AD2F8543F0133FB
:10493800C2F8543F012B3AD04F4BDA6C42F00402D4
:10494800DA64DB6C03F004030493049B04230793E9
:104958000B23089307A94948FFF794FE4548494B9C
:10496800C0F8A03F0023C0F8A43FC0F8A83FC0F893
:10497800AC3F8023C0F8B03F4FF48073C0F8B43F19
:104988004FF48063C0F8B83F2023C0F8BC3F4FF411
:104998004053C0F8C03F00F57A60FFF7C1FC88B902
:1049A800344B03F57A62E264C3F8C84F6AE7324BC6
:1049B800DA6C42F40052DA64DB6C03F400530393BC
:1049C800039BB9E7FCF7DAFD2A4AD2F8543F0133D2
:1049D800C2F8543F012B3AD0274BDA6C42F004025C
:1049E800DA64DB6C03F004030693069B0923079340
:1049F8000B23089307A92148FFF744FE1D48224BC3
:104A0800C0F8E83F0023C0F8EC3FC0F8F03FC0F81A
:104A1800F43F8023C0F8F83F4FF48073C0F8FC3FA0
:104A280000F580534FF480621A6020225A604FF4D8
:104A380080529A6000F6E870FFF772FC90B90D4B4F
:104A480003F6E872E26403F580531C611AE70A4B27
:104A5800DA6C42F40052DA64DB6C03F40053059319
:104A6800059BB9E7FCF78AFD0000045000010450DB
:104A780000020450481400200010024000080048BA
:104A8800080002401C0002403000024030B583B0EC
:104A980000230193002800F0E6800446436DFBB133
:104AA80023689A6812F0005F05D09A6822F02042C5
:104AB80022F03F029A602268936813F0805F1CD14D
:104AC800936823F0104323F03F0343F0805393602F
:104AD800664BD3F82833664AB3FBF2F3019309E037
:104AE800FFF7BCFE0023A36584F85030D8E7019B8C
:104AF800013B0193019B002BF9D12268936813F0C5
:104B0800805F40F08980636D43F010036365A36D97
:104B180043F00103A3650120936813F0040300D058
:104B28000123616D11F0100F40F09680002B40F0CA
:104B38009380636D23F4817343F002036365936884
:104B480013F0010F1BD14B4B9A6812F0010200D0F1
:104B58000122494B9B6813F0010300D00123134342
:104B6800464A926812F0010200D00122134306D18E
:104B78006168434A936823F47C130B439360627E15
:104B8800636B43EA4233E2681343A268134394F821
:104B9800202043EA0243012A40D0A26A22B102F44B
:104BA8007072E16A0A4313432168CD68354A2A4086
:104BB8001A43CA6021688B6813F0040300D00123EC
:104BC8008A6812F0080200D00122B3B9AAB9237E7C
:104BD80094F83020520042EA8332CB6823F48043B1
:104BE80023F002031343CB6094F83830012B1AD01A
:104BF8002268136923F0010313612369012B22D072
:104C08002268136B23F00F031363636D23F0030310
:104C180043F00103636524E000207DE7626A013AFE
:104C280043EA4243B9E721680A69E36B256C2B43E1
:104C3800656C2B43A56C2B436FF38A02134343F037
:104C480001030B61D9E721680A6BE369013B22F094
:104C58000F0213430B63D8E7636D43F010036365DA
:104C6800012003B030BD0120FBE700BF0000002099
:104C7800400D0300000004500001045000020450DD
:104C88000003045007C0F0FF30B589B00023039338
:104C9800049305930693079302683C4B9A4201D00C
:104CA80009B030BD044603F5CE339A6D42F0005288
:104CB8009A659A6D02F000520192019ADA6C42F0FC
:104CC8000102DA64DB6C03F001030293029B3023D8
:104CD80003930325049503A94FF09040FFF7D2FCF6
:104CE8002B482C4B40F8C83C40F8C45C102340F8D3
:104CF800C03C002340F8BC3C802340F8B83C4FF44B
:104D0800807340F8B43C4FF4806340F8B03C2023F3
:104D180040F8AC3C4FF4005340F8A83CC838FFF7C3
:104D2800FFFA70BB1A48A0F1C803A36040F8A04C72
:104D3800194B40F8803C032340F87C3C102340F892
:104D4800783C002340F8743C802340F8703C4FF4D2
:104D5800807340F86C3C4FF4806340F8683C202333
:104D680040F8643C4FF4405340F8603C8038FFF70B
:104D7800D7FA40B9064BA3F18002E26043F8584CD9
:104D88008EE7FCF7FBFBFCF7F9FB00BF0074004063
:104D980040250020440402405804024070B110B578
:104DA8000446037933B102232371002020610123D3
:104DB800237110BD4371FFF767FFF4E701207047C7
:104DC80000B589B0002303930493059306930793D2
:104DD80003681A4A934205D0194A934219D009B078
:104DE8005DF804FB174BDA6C42F00102DA64DB6C05
:104DF80003F001030193019B4FF400730393022313
:104E080004930123079303A94FF09040FFF73AFC5E
:104E1800E5E70C4BDA6C42F00402DA64DB6C03F071
:104E280004030293029B4FF4007303930223049339
:104E3800079303A90448FFF725FCD0E7002C01409D
:104E48000004004000100240000800480AB18161D7
:104E5800704781627047F0B58BB0002405940694C2
:104E6800079408940994434BDA6C42F00402DA641C
:104E7800DA6C02F004020092009ADA6C42F08002C6
:104E8800DA64DA6C02F080020192019ADA6C42F07C
:104E98000102DA64DA6C02F001020292029ADA6C18
:104EA80042F00202DA64DA6C02F002020392039A18
:104EB800DA6C42F00802DA64DB6C03F0080304934E
:104EC800049B224606214FF09040FFF7BFFF0122C6
:104ED8004FF401414FF09040FFF7B8FF264E0122F2
:104EE8004FF4C0713046FFF7B1FF4EF2400305930F
:104EF80003250695079405A93046FFF7C3FB02234F
:104F080005930695079405A91C48FFF7BBFB41F6D6
:104F1800C94305930695079405A94FF09040FFF7FC
:104F2800B1FB48F2061305930127069707940894E6
:104F380005A94FF09040FFF7A5FB41F6F7730593DD
:104F48000695079405A90E48FFF79CFB4FF4C0731C
:104F5800059306970794089405A93046FFF792FB36
:104F6800042305930695079405A90648FFF78AFBCD
:104F78000BB0F0BD0010024000080048001C0048BB
:104F880000040048000C004808B5024600296ADB06
:104F98003A4B186820F040001860186840F002008A
:104FA8001860186820F001001860186840F0400088
:104FB8001860334800EA0110104340F04070314B4C
:104FC80043F8380C020E03F8342C020C03F8332C87
:104FD800020A03F8322C03F8310C00224FF48071D6
:104FE8004FF09040FFF732FF244B9B6813F0020FFD
:104FF800FAD0244B13F8342C204B1A731F4B9B68A0
:1050080013F0020FFAD01F4B13F8332C1B4B1A73F3
:105018001A4B9B6813F0020FFAD01A4B13F8322C74
:10502800164B1A73154B9B6813F0020FFAD0154BE9
:1050380013F8312C114B1A73104B9B6813F0020FA5
:10504800FAD00E4B9B6813F4C05FFAD10B4B9B68E8
:1050580013F0800FFAD101224FF480714FF0904085
:10506800FFF7F4FE03E0002192E7044B1B7B034BA0
:105078009B6813F4C06FF8D108BD00BF003800402A
:10508800F0FF0F004025002008B5444B93F8643228
:1050980013BB434B13F8303C43BB404B93F8DC3114
:1050A800002B2FD13F4B93F81834002B35D13D4BB3
:1050B80093F8D03D002B3CD13A4B93F8803B002B22
:1050C80049D1384B93F82834002B50D1354B93F8FD
:1050D800B83D002B57D108BD0020304B83F864023F
:1050E800314BD3F88C12FFF74FFFD2E72C4B00223D
:1050F80003F8302C2C4BD3F888124FF40010FFF72C
:1051080043FFCAE7254B002283F8DC21D3F8D811E6
:105118004FF48010FFF738FFC4E7224B002283F8D2
:1051280018241E4BD3F86C124FF48000FFF72CFFA5
:10513800BDE71C4B002283F8D02D184BB3F8AE21E5
:1051480042F40072A3F8AE21D3F8B0114FF4C000B6
:10515800FFF71AFFB0E7134B002283F8802B124B9E
:10516800D3F890124FF4A000FFF70EFFA9E70D4BFC
:10517800002283F828240C4BD3F8CC124FF4E0001B
:10518800FFF702FFA2E7074B002283F8B82DD3F8F8
:10519800CC1D4FF44010FFF7F7FE9CE750030020AA
:1051A80040250020481400200000002000B583B0EE
:1051B80000228DF80720364B196821F0400119604C
:1051C800196841F002011960196821F0010119609C
:1051D800196841F0400119602E4B072103F82C1C77
:1051E80003F82B2C03F82A2C03F8292C4FF4807190
:1051F8004FF09040FFF72AFE254B9B6813F0020FF3
:10520800FAD0244B13F82C2C214B1A73204B9B6893
:1052180013F0020FFAD01F4B13F82B2C1C4B1A73E8
:105228001B4B9B6813F0020FFAD01A4B13F82A2C69
:10523800174B1A73164B9B6813F0020FFAD0154BD5
:1052480013F8292C124B1A73114B9B6813F0020F99
:10525800FAD00F4B9B6813F4C05FFAD10C4B9B68D4
:1052680013F0800FFAD101224FF480714FF0904073
:10527800FFF7ECFD04E0064B1B7BDBB28DF8073033
:10528800034B9B6813F4C06FF5D103B05DF804FBC2
:10529800003800404025002070B582B006460D4613
:1052A80000248DF80740254B1A6822F040021A6046
:1052B8001A6842F002021A601A6842F001021A6083
:1052C8001A6842F040021A60224680211C48FFF703
:1052D800BDFD224609E0194B9B6813F0020FFAD076
:1052E800B15C164B19730132D2B2AA42F3D3134BF5
:1052F8009B6813F0020FFAD0104B9B6813F4C05F41
:10530800FAD10E4B9B6813F0800FFAD1012280214D
:105318000B48FFF79BFD094A136823F0400313600D
:1053280004E0064B1B7BDBB28DF80730034B9B6810
:1053380013F4C06FF5D102B070BD00BF0038004053
:105348000008004800B583B028238DF804300221F6
:105358008DF8051001A8FFF79FFF03B05DF804FB67
:1053680000B583B010238DF804308DF805308DF822
:105378000630032101A8FFF78FFF08238DF80030BE
:1053880020238DF8013002238DF80230032168466E
:10539800FFF782FF03B05DF804FB00B583B010236C
:1053A8008DF804308DF8053096238DF806300321EA
:1053B80001A8FFF771FF08238DF8003020238DF82E
:1053C800013002238DF8023003216846FFF764FF9D
:1053D80003B05DF804FB00B583B04FF0FF330193D1
:1053E80004210DEB0100FFF757FF03B05DF804FB44
:1053F80070B582B006460D46144600228DF8072087
:10540800364B196821F040011960196841F0020112
:105418001960196841F001011960196841F04001EB
:10542800196080212E48FFF711FD2C4B9B6813F063
:10543800020FFAD046F04006284B1E73274B9B6894
:1054480013F0020FFAD0254B00221A73234B9B68E6
:1054580013F0010FFAD0214B1B7B2B7000200BE0BF
:105468001E4B00221A731D4B9B6813F0010FFAD0D4
:105478001A4B1B7B2B540130631E8342F0DC174B05
:105488009B6813F0010FFAD0013C144B1B7B2B5582
:10549800124B9B6813F0020FFAD0104B9B6813F461
:1054A800C05FFAD10D4B9B6813F0800FFAD101222F
:1054B80080210B48FFF7CAFC084A136823F0400311
:1054C800136004E0054B1B7BDBB28DF80730034B00
:1054D8009B6813F4C06FF5D102B070BD003800406E
:1054E8000008004800B583B0012201A90020FFF799
:1054F8007FFF9DF90430002B03DB012003B05DF82A
:1055080004FB0020FAE700B583B0032201A9582064
:10551800FFF76EFF9DF804209DF805301B0243EA53
:1055280002439DF80600184303B05DF804FB38B544
:10553800734B13F8283CDBB2032B09D8DFE803F0E0
:105548000209529BFFF729FF6D4B012203F8282C13
:1055580038BDFFF7C7FF30B9FFF702FF684B0222DB
:1055680003F8282CF4E7664C54F8245C04EB850512
:1055780055F8202CA3689B1AA360FFF7C4FF45F8D1
:10558800200C54F8245C04EB850353F8200CA36822
:105598000344A360FAF75BFE84ED030A013544F87F
:1055A800245C0A2D1AD0564BD3ED027AF8EEE77A2E
:1055B800F2EE046A87EEA67A524C84ED727AFDEE1A
:1055C800C77A17EE900AFAF742FE84ED720AB4F829
:1055D800AE3143F48073A4F8AE31BDE7002244F83D
:1055E800242CE0E7FFF77EFF30B9FFF7D6FE444BE7
:1055F800012203F8282CABE7414C256904EB85050B
:105608006A69E36B9B1AE363FFF77DFF68612569AD
:1056180004EB85035869E36B0344E3633A4B93ED6A
:105628009A0AFAF733FF84ED100A013525610A2D2D
:105638001ED0334BD3ED0F7AF8EEE77AF2EE046A18
:1056480087EEA67A314C84ED007A2F4B93ED9A0AB7
:10565800FDEEC77A17EE900AFAF718FF84ED000AF4
:10566800284AB2F8AE3143F00403A2F8AE31BCE7E1
:1056780000222261DDE7FFF735FF30B9FFF770FE42
:105688001F4B022203F8282C62E71D4C656C04EBC3
:105698008505AA6C236F9B1A2367FFF734FFA8645C
:1056A800656C04EB8503986C236F03442367164BE2
:1056B80093ED9B0AFAF742FE84ED1D0A01356564F5
:1056C8000A2D19D00E4CD4ED1C7AF8EEE77AF2EEDA
:1056D800046A87EEA67A84ED1E7A0B4B93ED9B0A3B
:1056E800FDEEC77A17EE900AFAF728FE84ED1E0A37
:1056F800012384F87C30C1E700226264E2E700BF3E
:10570800402500205003002000000020E01F00205A
:1057180070B582B006460D4600248DF80740274B29
:105728001A6822F040021A601A6842F002021A60EF
:105738001A6842F001021A601A6842F040021A60C0
:1057480022464FF400414FF09040FFF77FFB22467E
:1057580009E01A4B9B6813F0020FFAD0B15C174BA3
:1057680019730132D2B2AA42F3D3144B9B6813F0D7
:10577800020FFAD0114B9B6813F4C05FFAD10F4B9C
:105788009B6813F0800FFAD101224FF400414FF0CB
:105798009040FFF75BFB094A136823F0400313604E
:1057A80004E0064B1B7BDBB28DF80730034B9B688C
:1057B80013F4C06FF5D102B070BD00BF003C0040CB
:1057C80000B583B028238DF8043002218DF8051028
:1057D80001A8FFF79DFF03B05DF804FB00B583B097
:1057E80010238DF804308DF805308DF8063003212C
:1057F80001A8FFF78DFF08238DF8003020238DF8CE
:10580800013002238DF8023003216846FFF780FF3C
:1058180003B05DF804FB00B583B010238DF80430A5
:105828008DF8053096238DF80630032101A8FFF77F
:105838006FFF08238DF8003020238DF801300223F4
:105848008DF8023003216846FFF762FF03B05DF868
:1058580004FB00B583B04FF0FF33019304210DEB37
:105868000100FFF755FF03B05DF804FB08B5FFF72B
:10587800F0FFFFF7EEFFFFF7AEFDFFF7ACFDFFF718
:105888009FFFFFF75FFD08BD70B582B006460D4665
:10589800144600228DF80720384B196821F0400182
:1058A8001960196841F002011960196841F0010195
:1058B8001960196841F0400119604FF400414FF038
:1058C8009040FFF7C3FA2D4B9B6813F0020FFAD0F4
:1058D80046F04006294B1E73284B9B6813F0020FB5
:1058E800FAD0264B00221A73244B9B6813F0010F41
:1058F800FAD0224B1B7B2B7000200BE01F4B0022A1
:105908001A731E4B9B6813F0010FFAD01B4B1B7BBD
:105918002B540130631E8342F0DC184B9B6813F054
:10592800010FFAD0013C154B1B7B2B55134B9B6881
:1059380013F0020FFAD0114B9B6813F4C05FFAD131
:105948000E4B9B6813F0800FFAD101224FF40041EF
:105958004FF09040FFF77AFA084A136823F04003A3
:10596800136004E0054B1B7BDBB28DF80730034B5B
:105978009B6813F4C06FF5D102B070BD003C0040C5
:1059880000B583B0012201A90020FFF77DFF9DF932
:105998000430002B03DB012003B05DF804FB00207A
:1059A800FAE700B583B0032201A95820FFF76CFF7E
:1059B8009DF804209DF805301B0243EA02439DF838
:1059C8000600184303B05DF804FB38B57C4B93F828
:1059D8007D30DBB2032B09D8DFE803F002094FA3BF
:1059E800FFF719FF764B012283F87D2038BDFFF7BA
:1059F800C7FF30B9FFF7F2FE714B022283F87D2012
:105A0800F4E76F4CD4F8805004EB8505D5F8842072
:105A1800D4F8AC309B1AC4F8AC30FFF7C2FFC5F815
:105A28008400D4F8805004EB8503D3F88400D4F8BC
:105A3800AC300344C4F8AC30FAF709FC84ED2C0A06
:105A48000135C4F880500A2DD4D1D4ED2B7AF8EE64
:105A5800E77AF2EE046A87EEA67AFDEEC77A17EEC9
:105A6800900AFAF7F4FBDFED577A70EE677AC4ED27
:105A78002D7A0023C4F88030BCE7FFF781FF30B9E6
:105A8800FFF7C9FE4E4B012283F87D20AEE74C4C50
:105A9800D4F8B85004EB8505D5F8BC20D4F8E43028
:105AA8009B1AC4F8E430FFF77CFFC5F8BC00D4F8B3
:105AB800B85004EB8503D3F8BC00D4F8E4300344B1
:105AC800C4F8E430404B93ED9C0AFAF7E3FB84ED0D
